:020000040804EE
:10000000000008245DD30608A9D306085D950508FD
:1000100063950508699505086F95050800000000BF
:10002000000000000000000000000000014E040875
:10003000A9D30608000000009B4E0408AB4E04083C
:10004000A9D30608A9D30608A9D30608A9D3060888
:10005000A9D30608A9D30608A9D30608A9D3060878
:10006000A9D30608A9D30608A9D30608A9D3060868
:10007000A9D30608A9D30608A9D30608A9D3060858
:10008000A9D30608A9D30608A9D306082DE40608B3
:100090003DE4060839E4060849E40608A9D3060841
:1000A000A9D30608A9D30608A9D30608A9D3060828
:1000B000A9D30608A9D30608A9D30608A9D3060818
:1000C000A9D30608A9D30608A9D30608A9D3060808
:1000D000A9D30608A9D30608A9D30608A9D30608F8
:1000E000A9D30608A9D3060800000000A9D3060872
:1000F000A9D30608A9D30608A9D30608A9D30608D8
:10010000A9D3060879D00608A9D30608A9D30608FA
:10011000A9D30608A9D30608A9D30608A9D30608B7
:10012000A9D30608A9D30608A9D30608A9D30608A7
:10013000A9D30608C77C0408A9D30608A9D30608D2
:10014000A9D30608A9D3060800000000000000009B
:10015000A9D30608A9D30608A9D30608A9D3060877
:10016000A9D30608A9D30608A9D30608A9D3060867
:10017000A9D30608A9D30608A9D3060800000000E1
:10018000A9D30608A9D30608A9D30608A9D3060847
:10019000A9D30608A9D30608A9D30608A9D3060837
:1001A000A9D30608A9D30608A9D30608A9D3060827
:1001B000A9D30608A9D30608A9D30608A9D3060817
:1001C000A9D30608A9D30608A9D30608A9D3060807
:1001D000A9D30608A9D30608A9D30608A9D30608F7
:1001E000A9D30608A9D30608A9D30608A9D30608E7
:1001F000A9D30608A9D30608A9D30608A9D30608D7
:10020000A9D30608A9D30608A9D30608A9D30608C6
:10021000A9D30608A9D30608A9D30608A9D30608B6
:10022000A9D30608A9D30608A9D30608A9D30608A6
:10023000A9D3060859D30608A9D30608A9D30608E6
:10024000A9D30608A9D30608A9D30608A9D3060886
:10025000A9D30608A9D30608A9D30608A9D3060876
:10026000A9D30608A9D30608A9D30608A9D3060866
:10027000A9D30608A9D30608A9D30608A9D3060856
:10028000A9D30608A9D30608A9D3060800000000D0
:10029000A9D30608A9D3060810B5054C237833B9AD
:1002A000044B13B10448AFF300800123237010BD49
:1002B000002000240000000080840A0808B5034BD9
:1002C0001BB103490348AFF3008008BD00000000E4
:1002D0000420002480840A08154B002B08BF134B10
:1002E0009D46A3F5803A00218B460F461348144AD9
:1002F000121A50F04DFE0F4B002B00D098470E4BBA
:10030000002B00D098470020002104000D000D486C
:10031000002802D00C481AF0CDF84FF0F7FF20006B
:10032000290006F081FF1AF0DFFA00BF0000080084
:10033000000008240000000085710408002000244B
:1003400030270224B5A4050800000000094B30B591
:100350001A46094CD3F89450A542FBD1036829B141
:1003600081680B604FF44073536130BDC1681B045A
:10037000F7E700BF0064025800030080014B012230
:100380001A7070473020002438B5154801F06CF918
:10039000144C1348144D01F0D5F9114801F0C5F97A
:1003A000288120600E4801F0B3F921680F4B01311C
:1003B000E8801860C9B20A4801F080F923683B2B35
:1003C00003D10021064801F079F9192003220849D8
:1003D00002F035FE0748BDE8384034F051BD00BF9B
:1003E0005824002438200024000000383420002441
:1003F0007D030408202000242DE9F0412F4F804682
:100400002F4E3B682F4DC21AB6F9023029680B44B3
:100410009A4244D32C4CB6F9042023689A4217DA46
:1004200001212A48FFF792FF236801212848013B58
:100430002360FFF78BFF2B68002B36DDB6F9041025
:100440002268521A234909688A422ADD023B2B603E
:10045000B6F9042023689A4217DD00211B48FFF7F4
:1004600075FF236801211A4801332360FFF76EFFEF
:100470002B68002B1FDD2168B6F90420521A15499C
:1004800009688A4213DD023B2B602368C7F80080AD
:10049000B6F904209A4204BF40F2DC532B60BDE859
:1004A000F08140F2DB529342D2DC0133CFE740F2DD
:1004B000DB529342E9DC0133E6E700BF4020002431
:1004C000000200380800002424200024C82400244E
:1004D000E4240024040000242DE9F0412F4F80463D
:1004E0002F4E3B682F4DC21AB6F9083029680B44CD
:1004F0009A4244D32C4CB6F90A2023689A4217DA60
:1005000001212A48FFF722FF236801212848013BE7
:100510002360FFF71BFF2B68002B36DDB6F90A10AE
:100520002268521A234909688A422ADD023B2B605D
:10053000B6F90A2023689A4217DD00211B48FFF70D
:1005400005FF236801211A4801332360FFF7FEFEEF
:100550002B68002B1FDD2168B6F90A20521A1549B5
:1005600009688A4213DD023B2B602368C7F80080CC
:10057000B6F90A209A4204BF40F2DC532B60BDE872
:10058000F08140F2DB529342D2DC0133CFE740F2FC
:10059000DB529342E9DC0133E6E700BF442000244C
:1005A000000200380C00002428200024002500242C
:1005B0001C250024040000242DE9F0412F4F804623
:1005C0002F4E3B682F4DC21AB6F90E3029680B44E6
:1005D0009A4244D32C4CB6F9102023689A4217DA79
:1005E00001212A48FFF7B2FE236801212848013B78
:1005F0002360FFF7ABFE2B68002B36DDB6F9101039
:100600002268521A234909688A422ADD023B2B607C
:10061000B6F9102023689A4217DD00211B48FFF726
:1006200095FE236801211A4801332360FFF78EFEEF
:100630002B68002B1FDD2168B6F91020521A1549CE
:1006400009688A4213DD023B2B602368C7F80080EB
:10065000B6F910209A4204BF40F2DC532B60BDE88B
:10066000F08140F2DB529342D2DC0133CFE740F21B
:10067000DB529342E9DC0133E6E700BF4820002467
:1006800000020038100000242C200024382500240B
:100690005425002404000024F8B5184D0646184FD0
:1006A0002B68B7F91620C31A934225D3154CB7F916
:1006B000182023689A420ADA01211348FFF746FE00
:1006C000236801211148013B2360FFF73FFEB7F982
:1006D000182023689A420ADD00210B48FFF736FEF6
:1006E00023680121094801332360FFF72FFEB7F982
:1006F000183003B923602E60F8BD00BF3C200024F1
:10070000000200381C200024702500248C250024C1
:1007100010B51C24012100FB044409480444204670
:10072000FFF714FE40F2E24004F036FA20460021C2
:10073000FFF70CFE40F2E240BDE8104004F02CBA96
:10074000AC24002410B51C24012100FB04440848FB
:1007500004442046FFF7FAFDFA2004F01DFA204673
:100760000021FFF7F3FDFA20BDE8104004F014BAB1
:10077000AC24002438B505213E4801F067F9012872
:1007800030D1022004F006FA05213A4801F05EF962
:10079000012827D1022004F0FDF90521354801F098
:1007A00055F901281ED140F2DC54334D0021284672
:1007B000FFF7CCFD0320FFF7C5FF013CF6D12D4D1F
:1007C0002D4C0521284601F041F9012807D020468B
:1007D0000121FFF7BBFD0320FFF79AFFF1E7274B4D
:1007E00000221A600521234801F030F9012840D089
:1007F000022004F0CFF905211E4801F027F9012855
:1008000037D0022004F0C6F905211A4801F01EF97C
:1008100001282ED0174D184C0521284601F016F955
:10082000012807D020460121FFF790FD0320FFF7A4
:1008300089FFF1E740F2DC540F4D00212846FFF715
:1008400085FD0320FFF77EFF013CF6D1094D0A4CE0
:100850000521284601F0FAF8012807D02046012199
:10086000FFF774FD0320FFF753FFF1E7034B00226E
:100870001A6038BD542400240025002428200024B8
:1008800070B50421474801F0E1F8012830D1022079
:1008900004F080F90421434801F0D8F8012827D159
:1008A000022004F077F904213E4801F0CFF8012836
:1008B0001ED140F2DC543C4D00212846FFF746FD96
:1008C0000520FFF73FFF013CF6D1364D364C0421A1
:1008D000284601F0BBF8012807D020460121FFF788
:1008E00035FD0520FFF714FFF1E7304B00221A60B9
:1008F00004212C4801F0AAF801283FD0022004F07E
:1009000049F90421274801F0A1F8012836D0022036
:1009100004F040F90421234801F098F801282DD073
:10092000204D214C0421284601F090F838B920468A
:100930000121FFF70BFD0520FFF704FFF2E740F26E
:10094000DC54194D00212846FFF700FD0520FFF774
:10095000F9FE013CF6D1134D134C0421284601F059
:1009600075F8012807D020460121FFF7EFFC05208C
:10097000FFF7CEFEF1E70D4B00221A600B4C42F65A
:10098000DF66094D2368B3420ADC00212846FFF7E1
:10099000DDFC0520FFF7D6FE236801332360F1E775
:1009A00070BD00BF54240024382500242C200024CE
:1009B00038B501460546094801F048F804460220CA
:1009C00004F0E8F82946054801F040F81CB1003071
:1009D00018BF012038BD2046FCE700BF5424002486
:1009E00038B50821394801F031F8012830D102200A
:1009F00004F0D0F80821354801F028F8012827D163
:100A0000022004F0C7F80821304801F01FF801283F
:100A10001ED140F2DC542E4D00212846FFF796FCF3
:100A20000120FFF78FFE013CF6D1284D284C08210C
:100A3000284601F00BF8012807D020460121FFF7D6
:100A400085FC0120FFF764FEF1E7224B00221A60CB
:100A50001F4C0820FFF7ACFF38B920460121FFF7F3
:100A600075FC0120FFF76EFEF3E740F2DC54184DF1
:100A700000212846FFF76AFC0120FFF763FE013CD6
:100A8000F6D1124D124C0821284600F0DFFF012854
:100A900007D020460121FFF759FC0120FFF738FE5F
:100AA000F1E70C4C00230A4D23602368B3F57A7FED
:100AB0000ADA00212846FFF749FC0120FFF728FE4B
:100AC000236801332360F0E738BD00BF54240024BD
:100AD000C824002424200024044B1B68C01A642866
:100AE00003D900210248FFF731BC704740200024A1
:100AF000E4240024044B1B68C01A642803D9002195
:100B00000248FFF723BC7047442000241C25002422
:100B1000044B1B68C01A642803D900210248FFF760
:100B200015BC70474820002454250024044B1B6842
:100B3000C01A642803D900210248FFF707BC704798
:100B40003C2000248C25002470B52C4E2C4D32788E
:100B50001AB32C4C192002F07DF92B4800F0E5FD6A
:100B600028812060284800F0D3FD2168E880013109
:100B70002548C9B200F0A2FD23683B2B03D1002118
:100B8000214800F09BFD204800F0E9FD03221F49A9
:100B9000192002F054FA002333701D4E03F0EEFFCB
:100BA0000446B27C52B9FFF727FC2046FFF794FCBD
:100BB0002046FFF701FD2046FFF76EFDB37C2BB109
:100BC000FFF75EFEFFF70CFFFFF7D4FD114B204649
:100BD0001B882B80104B1B886B80104B1B88AB80B5
:100BE000FFF77AFF2046FFF785FF2046FFF790FFCB
:100BF0002046BDE87040FFF799BF00BF30200024B9
:100C00000000003838200024582400247D03040804
:100C10000002003824200024282000242C20002456
:100C20000149024834F0EAB88DF610E8202000248B
:100C3000704710B504461C3017F09CFB204610BDD1
:100C400010B5044617F096FB204610BD10B50446BB
:100C50006C3014F050FD04F1480014F04CFD04F128
:100C6000240014F048FD204614F045FD204610BD38
:100C700038B504460D461C22002150F089F9204663
:100C8000294617F0F6FB204638BD000038B504466B
:100C90003421FFF7EDFF352104F11C00254DFFF74E
:100CA000E7FF432104F13800FFF7E2FF632104F17D
:100CB0005400FFF7DDFF372104F17000FFF7D8FF84
:100CC000762104F18C00FFF7D3FF972104F1A800EF
:100CD000FFF7CEFF7F2104F1C400FFF7C9FF7A219F
:100CE00004F1E000FFF7C4FF042104F1FC00FFF76A
:100CF000BFFF082104F58C70FFF7BAFF262104F529
:100D00009A70FFF7B5FF2A4640F6237104F5A870E4
:100D100014F042F92A4640F6227104F5E07014F00E
:100D20003BF92A4640F6017104F50C7014F034F9D1
:100D3000204638BD0000C07F10B504461221FFF7E1
:100D400097FF862104F11C00FFF792FF792104F13F
:100D50003800FFF78DFF992104F15400FFF788FF59
:100D6000422104F17000FFF783FF832104F18C001E
:100D7000FFF77EFF822104F1A800FFF779FF3321FE
:100D800004F1C400FFF774FF0E2104F1E000FFF747
:100D90006FFF204610BD10B50446A43014F0AEFB22
:100DA00004F1540014F0AAFB201D14F0A7FB204608
:100DB00010BD10B5044600F58470FFF7ECFF204627
:100DC000FFF7E9FF204610BD10B5044600F59E7000
:100DD00014F0B8F9204610BD2DE9F3414FF47A73B1
:100DE000002504464FF48072C561294604F59E76BD
:100DF000058404F52777C0E90153224B03602023C3
:100E0000C0E905358923283020F8063C4FF6FF73EA
:100E100020F8043C20F8023C50F0BAF8C4F82851FD
:100E200084F838517D22C4F82C511821C4F830516F
:100E3000304614F0E1F8284603F060FE05468D20A8
:100E400003F05CFE80468A2003F058FE0090434683
:100E50002A462146384601F059F904F534731C221C
:100E60000021184650F094F800220D2117F0FDFAE9
:100E700004E0304614F066F932F0E8F9204602B09A
:100E8000BDE8F08130A3090813B506214F4800F0F2
:100E9000D7F84F4A07214F4800F064FC36214E48EE
:100EA000FFF7E6FE84214D48FFF7E2FE6A214C4839
:100EB000FFF7DEFE2F214B48FFF7DAFE4A48FFF727
:100EC0008BFF4A4A4A49484819F0F2FA4948FFF765
:100ED000DDFE464A4849474819F0EAFA9B2147484F
:100EE00014F0EBFBA121464814F0E7FB67214548CD
:100EF00014F0E3FB2721444814F0DFFB00243B4AB5
:100F000042493E4819F0D4FA7B237C22982140487C
:100F1000CDE9004400F0F8FA9A2387222D213D48BC
:100F2000CDE9004400F0F0FA0CE0364814F0E3FBA1
:100F3000334814F0E0FB314814F0DDFB32F086F961
:100F4000F6E7F8E7294A3449314819F0B1FA33484D
:100F5000FFF7F2FE324800F023FF324800F020FF96
:100F60007E213148FFF784FE304800F07BFB1C22D5
:100F700000212E4850F00CF8012219212B4817F0BF
:100F800072FA1A4A2A49294819F092FA1C220021B9
:100F900028484FF0FDFF00221E21264817F065FA71
:100FA0001C22002124484FF0F3FF1F21224817F094
:100FB00057FA0E4A21491F4802B0BDE8104019F007
:100FC00077BA1348FFF7E7FEB8E700BFDC2000243C
:100FD000982A0024E4200024F8200024142100246E
:100FE000302100244C21002468210024000000242A
:100FF000C90D0408D8270024310C04084C20002413
:101000007020002494200024B82000244D0C0408F3
:10101000C8250024D0260024B30D0408AC240024E5
:1010200054240024A8250024AC250024582400249E
:10103000410C04087424002490240024330C040878
:10104000014A018042607047982A0024C80970470D
:10105000C1F380107047C1F340107047C1F3001016
:101060007047C1F3C0007047C1F3800070470000B3
:10107000F7B504460E4602AD0021B0F9000005F8B0
:10108000011D03F08FFE60680F4B0268D76993E87B
:101090000600B847606806F07F0103689B689847C0
:1010A00060680122294603681B69984760680368E5
:1010B0001B6A9847B4F90000012103F073FE9DF804
:1010C000070003B0F0BD00BF782A00240721FFF716
:1010D000CFBF000070B505460C46B0F900000021F6
:1010E00003F060FE6868124B0268D66993E8060058
:1010F000B0476868214603689B6898476868002184
:1011000003689B6898470021000284B268680368FE
:101110009B68984704436868A4B203681B6A9847B1
:10112000B5F90000012103F03DFE204670BD00BF6F
:10113000782A002437B561F07F010446B0F9000039
:101140008DF8041000218DF8052003F02BFE606857
:101150000B4B0268D56993E80600A8476068022235
:1011600001A903681B699847606803681B6A984770
:101170000121B4F9000003F015FE03B030BD00BF3B
:10118000782A002438B5044640680D460368DB6AB7
:1011900098470121B4F9000003F084FD0121B4F95E
:1011A000000003F0FFFD012D4FF00001204634D177
:1011B000FFF75EFF40F01002D2B220460021FFF799
:1011C000B9FF00212046FFF753FF002100F07F0206
:1011D0002046FFF7AFFF00212046FFF749FF00211F
:1011E00000F0BF022046FFF7A5FF00212046FFF7D1
:1011F0003FFF00F0D1020021204642F00202FFF73B
:1012000099FF00212046FFF733FF002100F0FE0286
:101210002046FFF78FFF012038BDFFF729FF00F0C0
:10122000EF02CAE710B500210446FFF721FF00F0E6
:10123000D1020021204642F00202BDE81040FFF733
:1012400079BF38B500210446FFF712FF00F0D10244
:101250000021204642F00202FFF76CFF00212046E9
:10126000FFF706FF60F07F0200212046D2B2FFF7B1
:1012700061FF0A2003F08EFC00212046FFF7F8FEF4
:1012800040F0200200212046D2B2FFF753FF412058
:1012900003F080FC01212046FFF71CFF00210546DA
:1012A0002046FFF7E5FE002100F07F022046FFF711
:1012B00041FF681038BD000008B52DED048B08EE25
:1012C000901A09EE102AFFF7BCFF08EE100AB7EEDD
:1012D000E86ABBEEE88A9FED325B28EE098A85EE6C
:1012E000067BB7EEC77BDFED3C7AE8EE077A17EEB8
:1012F000900A49F069FBDFED397A07EE100ADFED5D
:10130000386A77EE677A87EEA67AB5EEC07AF1EEA4
:1013100010FA3FDA88EE286ADFED327A9FED225B21
:1013200026EE276A9FED227BB7EEC63A66EE066A86
:10133000A3EE057BB7EEE64A66EE266A9FED1E5BDE
:10134000B7EEC77BB7EEC77AA4EE057BB7EEE64AE9
:1013500066EE266A9FED1A5B26EE266AB7EEC77B1D
:10136000B7EEC77AA4EE457BB7EEE64AB7EEC66A9B
:101370009FED155BB7EEC77BB7EEC77AA4EE457B52
:101380009FED135BB7EEC77BB7EEC77AA6EE057B82
:10139000B7EEC77B17EE100ABDEC048B08BD00BF8B
:1013A00088CE19EEAF60C3BEF163CC5D4BC801407F
:1013B000000000E0A3406EC0BB82C87D062F653FE1
:1013C00093C266C7E03DD43ECE563151E2425E3E06
:1013D0003EFAE46127F3E43D178393373211803BF3
:1013E0007F059BB50000C842034B044A1A600122E6
:1013F0001A715A71704700BF782A002440420F00CA
:101400007047D0F804310133C0F80431704738B563
:101410000446043014F0CCF8054604F1540014F0EE
:10142000C7F8237840EA4500C4F8FC00E3B9D4F8D3
:10143000F830032B06D140B9D4F800310133C4F899
:10144000003102E023B90328F6D0C4F8F80038BD13
:10145000022B05D10128F8D1D4F80031013BEEE789
:10146000012BF2D10228F6E7012BEED1D4F8F830A7
:1014700080EA0302032AE8D09842E6D083EA6003B8
:10148000D4F8002113F0010308BF4FF0FF33D31A43
:10149000D5E70B6803604B6843608B6883607047D7
:1014A00010B4D0E9013401686210E4075DF8044B20
:1014B00001EB020044BF8A58D3581847C3680BB1E8
:1014C0009B6818477047D0F8FC007047D0F80001BF
:1014D0007047D0F80401704710B586B004466846DE
:1014E00080E80C0006A800E90C00064BE360034608
:1014F00043F80C1D93E8070084E80700204606B077
:1015000010BD00BF9C9809082DE9F0470446061D50
:101510008EB0154604F15407304699469DF85CA0FC
:1015200014F024F82946384614F020F804F1A408F1
:101530004946404614F01AF8002384F800A03046CB
:10154000C4F80031C4F80431169BC4F8F43014F028
:101550002FF80546384614F02BF8002340EA4500E2
:101560003E4D214601936B460095C4E93E000CCBED
:101570000AA8FFF7B1FF0AA9304614F021F80AA81B
:10158000FFF79CFF002302952146039302AB0AA8B4
:101590000CCBFFF7A1FF0AA9304614F02DF80AA8DA
:1015A000FFF78CFFBAF1010F1FD1002304952146EC
:1015B0000AA8059304AB0CCBFFF78EFF0AA93846A7
:1015C00013F0FEFF0AA8FFF779FF002306952146D6
:1015D000079306AB0AA80CCBFFF77EFF0AA9384693
:1015E00014F00AF80AA8FFF769FFB9F1FF3F10D01D
:1015F0001B4B21460AA808930023099308AB0CCB88
:10160000FFF76AFF0AA9404613F0DAFF0AA8FFF7BE
:1016100055FF20460EB0BDE8F0870AA8FFF74EFF41
:10162000404613F06BFF384613F068FF304613F066
:1016300065FF31F00BFE0AA8FFF740FFF0E70AA8AC
:10164000FFF73CFFECE70AA8FFF738FFE8E70AA836
:10165000FFF734FFE4E7E3E7E5E7E7E70F14040803
:10166000031404087047000010B5074C204600F032
:1016700015FE5121204600F0B3FD204600F0B6FDD6
:10168000B0FA80F0400910BDD82D002470B50A4C86
:1016900006460D465121204600F0A2FD3146204667
:1016A00000F0B0FD2946204600F0ACFD2046BDE824
:1016B000704000F09BBD00BFD82D00240A230920F4
:1016C000B1FBF3F3C3EB4312C3EB82021B0103EB49
:1016D0004203194401F07F01FFF7D8BF38B50B4C26
:1016E0000D465121204600F07BFD2946204600F0A2
:1016F00089FD204600F07AFD01225121204600F0AC
:1017000079FD204600F097FDC0B238BDD82D0024E9
:1017100008B50421FFF7E2FFC0F3011300F00F004A
:1017200003EB830300EB430008BD08B50321FFF77B
:10173000D5FFC0F3021300F00F0003EB830300EBAF
:10174000430008BD08B50121FFF7C8FF00F0F5010F
:10175000012041F00201BDE80840FFF797BFFFF705
:10176000F1BF0000C0E90112044AC260002210B5B6
:1017700002740122024C4274046010BD00093D0055
:101780006666064010B504460021007903F046FA6B
:101790002079002103F0C0FAA0680368BDE810407A
:1017A0001B6B184770B5002104460079042603F02E
:1017B000B3FA012003F0F0F9A0680368DD6904F1D1
:1017C0000C0393E80600A8470025A06800212D021D
:1017D00003689B689847013E45EA0005F5D1A0687B
:1017E00003681B6A98472079012103F095FA28467F
:1017F00070BD10B504460121007903F00FFA0121F4
:10180000207903F089FAA0680368DB6A98472046CC
:10181000FFF7C8FF6FF07F43984204D12046FFF7DF
:10182000B1FF002010BD0120FCE700000000000017
:1018300043EC152BDDE90003002282421EDA194633
:10184000183313ED047BB4EEC57BF1EE10FA13DD13
:10185000086898B1B7EE006B00239FED0B7B9842B0
:101860000EDD0A6902EBC302013392ED004BA4EED8
:10187000067B26EE056BF2E70132DEE79FED047B87
:1018800051EC170B704700BF000000000000000083
:10189000000000000000F87F10B543EC132B2DED85
:1018A000028B0C4682B061B31D4B012918BF002387
:1018B00001930323009353EC132BFFF7B9FF41EC83
:1018C000180BC4B9B5EEC03BF1EE10FA13DD9FED75
:1018D0000E7B33EE473B9FED0E7B23EE033B23EE67
:1018E000077B51EC170B48F0E3FA9FED0B7B41ECC3
:1018F000160BA6EE078B51EC180B02B0BDEC028B59
:1019000010BD084BD4E700BFF5B9DA8AFDBD5F40D2
:101910004175DFB1E0051FBFB253628D695CBE3F08
:10192000109909085899090837B514461D4669B138
:10193000074B01290CBF19460021042322460191BF
:1019400000932B46FFF774FF03B030BD0149F4E765
:10195000D89A0908389B090838B52DED048B0D4637
:101960000446FFF71FFF410741D1830C00284FEACF
:10197000101094ED007AB8BF6FEA83332946B7EEB2
:10198000C77AB8BF6FEA9333020508EE103AC0F386
:101990000B03204648BF6FEA0353BAEECF8A48BF15
:1019A0006FEA1353B7EEC88A09EE103ABAEECE9A30
:1019B000B7EEC99A39EE477B53EC172BFFF76CFF54
:1019C00038EE498B9FED0C7B41EC160B29462046E7
:1019D000A8EE076B53EC162BFFF7A6FF41EC170B95
:1019E000F7EEC77B17EE900ABDEC048B38BDDFED38
:1019F000047AF7E7AFF30080000000C02022A53F83
:101A00000000C07F064B074A1A6007225A60064A48
:101A10009A60064ADA6000221A7401225A747047EA
:101A2000802A002466660640982A002400093D00AA
:101A3000162908B508DC012A06D802F0010289B28D
:101A400000F0ECF9012008BD0020FCE738B50546A0
:101A50000C4600F006FA222806D1A4F10C030B2B49
:101A60000BD94FF0FF3038BD284600F0FAF9232893
:101A7000F7D1082CF5D8032CF3D0A1B2284600F0FA
:101A8000A7F9F0E7C1F307220023C9B200F0D2B9E9
:101A900007B501A900F0B2F9019803B05DF804FBA5
:101AA00010B5044600F0DDF922287DD10022204641
:101AB000114600F0C8F920460022012100F0C3F9C8
:101AC00020460022022100F0BEF920460022032118
:101AD00000F0B9F920460022072100F0B4F92046B1
:101AE0000022062100F0AFF920460022052100F077
:101AF000AAF920460022042100F0A5F92046002280
:101B0000082100F0A0F920460022092100F09BF9ED
:101B1000204600220A2100F096F9204600220B21DF
:101B200000F091F920460122172100F08CF920469F
:101B30000122162100F087F920460122152100F02C
:101B400082F920460122142100F07DF9204601226D
:101B5000132100F078F920460122122100F073F9D8
:101B600020460122112100F06EF9204601221021A9
:101B700000F069F9204601220F2100F064F92046A7
:101B800001220E2100F05FF9204601220D2100F014
:101B90005AF920460C21012200F055F92046002177
:101BA000BDE81040FFF76EBF20460122082100F07B
:101BB0004AF920460122052100F045F9204601227C
:101BC000042100F040F920460122022100F03BF9F7
:101BD00001222046114600F036F92046012200215C
:101BE00000F031F920460122072100F02CF92046AF
:101BF00001220621BDE8104000F025B938B50546A0
:101C000000F02DF9284600F0CFF8044610B1284620
:101C1000FFF746FF204638BD014800F0C1B800BFBD
:101C2000942A002470B51C460E4615460146013C18
:101C30000B4800F0D5FA31462544094E084800F01B
:101C4000E1FAAC4205D014F8011F304600F0DAFA90
:101C5000F7E7034800F0CAFAB0FA80F0400970BD17
:101C6000E42A002407B502AB03F8012D0122FFF797
:101C7000D9FF03B05DF804FB2DE9F74F1746009339
:101C800082468B46BDF83080002502F065FF202F8C
:101C90003B468146A8BF20232C46234E0193BD42DC
:101CA00030D25146304600F09BFA5946304600F09B
:101CB000A9FA304600F09AFA5146304600F090FA00
:101CC0007A1B51463046202AA8BF2022D2B200F00B
:101CD00091FA304600F0A5FA80B1B8F1000F07D1B3
:101CE000304600F0A8FA009B1855013464B2F0E7C2
:101CF00002F032FFA0EB09004045F1D3019B1D44E7
:101D0000EDB2CCE7B8F1000F09D002F025FFA0EB4F
:101D10000900404503D3BC42B8BF4FF0FF34204612
:101D200003B0BDE8F08F00BFE42A002407B500939C
:101D300013460122FFF7A0FF03B05DF804FB37B59F
:101D400015461C460DF10702BDF81830FFF7EEFFEF
:101D500001229DF80730AA401A40227003B030BD1E
:101D6000F7B51E460D4B17460DF107021B880446BA
:101D70000D46FFF7DBFF01229DF80730BA4052B253
:101D80004EB11A43D2B2294620468DF80720FFF7FC
:101D900069FF03B0F0BD23EA0202F4E71400002457
:101DA000222303707047000007B5084A034600214C
:101DB00000781288013300920322FFF75DFFC31EF3
:101DC0005842584103B05DF804FB00BF14000024E2
:101DD000094B01F0070213B51B880446C1F3C70184
:101DE00000780093631CFFF7AAFF6078003018BFEB
:101DF000012002B010BD00BF14000024064B1B8858
:101E000007B50322007800930B468021FFF734FFCB
:101E100003B05DF804FB00BF1400002410B4CC082C
:101E20001346007801F007020434E1B25DF8044B78
:101E3000FFF796BF4170842182700322C370431C58
:101E40000078FFF7EFBE10B4CC081346007801F01D
:101E500007020C34E1B25DF8044BFFF781BF01705B
:101E600070470078704710B5C36886B001228DF8BE
:101E70000F100DF10F01186803680092DC680DF176
:101E80001703A0479DF8170006B010BDF8B5427AB9
:101E9000044603680E46CFB29B680D0A62B9394604
:101EA0009847236860F3070629469B6820469847B1
:101EB00060F30F26B0B2F8BD29469847236860F357
:101EC0000F2639469B682046984760F30706F1E7DE
:101ED000C36813B5186803680092DC680B46A04716
:101EE00002B010BD704770477047C36810B5044614
:101EF00053B1186840B103685B6898470421E068F3
:101F000018F062FD0023E36010BD10B504461821EF
:101F100018F05AFD204610BD436873B599426D46CE
:101F200004460E4685E8060004D1BDF80420038966
:101F30009A420FD0E36808219DF80420186813F036
:101F400024FEE3683146186813F03DFE0098AB8824
:101F50006060238102B070BD73B5C568044625B9C1
:101F6000042018F0FDFCE0600560E3681B6883B99D
:101F70004FF0FF36742018F0F3FCB4F91430B4F9C4
:101F800010200546B4F91210009613F0FDFEE36828
:101F90001D6002B070BD7421284618F015FD31F0A7
:101FA00055F9000038B50A2002F0BCFD05460820AE
:101FB00002F0B8FD0446092002F0B4FD094B0A4ABC
:101FC0000121988218461A60002259725A601A72CA
:101FD000DA601D825C82054A0549BDE8384018F088
:101FE00067BA00BF982A0024A89C090800000024B2
:101FF000E91E0408002070470268322313B50093DD
:10200000946A40F21342A04702B010BD13B50468B1
:1020100000931346A46A40F21342A04702B010BDD9
:1020200013B5322304680093A46AA04702B010BD20
:10203000006903681B691847006903689B691847B2
:10204000006903685B69184700690368DB68184723
:102050000120704770B504460D4616460499C562C6
:102060002286026A002A08BF1A46436A002B18BF5C
:102070001946026241628069002807DB0121C0B273
:1020800002F0CCFD0021207E02F046FEE06900282F
:1020900007DB0121C0B202F0C1FD0121207F02F067
:1020A0003BFE002320693246294684F82830036825
:1020B000BDE870401B6A184710B504460069036804
:1020C0005B6A9847A069002807DB0021C0B202F0D4
:1020D00023FE0021207E02F0A1FDE069002809DB3B
:1020E0000021C0B202F018FE207F0021BDE81040A0
:1020F00002F094BD10BD034690F8280018B118698D
:1021000003681B68184701225A60704770B50025A4
:102110004FF47A768361049B456280F82850C0E9C9
:102120000156034EC0E904120660C0E9073570BDD0
:10213000E49C090810B504468069002807DBC0B29A
:10214000012102F0E9FD206A08B102F025FD01231A
:1021500084F8283010BD10B5044600690368DB68B8
:102160009847A369002B07DB606A08B102F014FDF1
:102170000021207E02F0D0FD002384F8283010BD1D
:10218000C069002803DB0021C0B202F0C5BD704762
:10219000C069002803DB0121C0B202F0BDBD704759
:1021A0000A4B00224FF47A7101205A6283F82820EA
:1021B000C3E9012106491960064919611521C3E9DE
:1021C00005011421C3E90712704700BFB02A00249B
:1021D000E49C0908103700240368C9B21B6818473B
:1021E00049000023C161C0F82C3270470368012107
:1021F0001B6B184710B403689C6B0123A4465DF861
:10220000044B6047D0F82C32B3F5807F1FBF5A1CB7
:10221000C0F82C22C01880F82C1114BF0120002017
:102220007047D0F8280170477047C0F830127047E7
:10223000C0F834127047D0F82831A3B1D0F8283153
:102240008BB1D0F82431D0F824210344013293F823
:102250002030D2B2C0F82421D0F82821013AC0F8A9
:102260002821184670474FF0FF307047D0F82831CA
:102270002BB1D0F82431184490F8200070474FF06B
:10228000FF307047044B10B50446036000F50E7034
:1022900018F0FAFF204610BD389D090838B50368CC
:1022A00004465B6A98474FF4827018F059FBB4F902
:1022B0001A20B4F91810054613F0B2F8656138BD5C
:1022C0004FF48271284618F07FFB30F0BFFF38B51D
:1022D000D0F82C321446054600F596701A4418447E
:1022E000B2F5807F88BFC3F5807422464EF052FD60
:1022F000D5F82C3220462344C5F82C3238BD38B5E9
:10230000044640690D4608B112F0A7FF206920B1CC
:102310002946BDE8384013F0D9B838BD07B581F07B
:10232000010100F596720091D0F82C32C169406924
:1023300012F0A6FF002814BF0220002003B05DF8B1
:1023400004FB38B50446406910B10368DB68984760
:1023500023696BB104F50E75284618F073FF284603
:1023600019F01CF82069A421BDE8384018F02CBBF6
:1023700038BD70B5C2B083F001030446154602AE05
:102380000093490013464069324612F09AFFC8B9DB
:10239000A84218D0D4F82831B3F5807F10D0D4F8F3
:1023A0002031325C234483F82020D4F820310133DB
:1023B000DBB2C4F82031D4F828310133C4F8283115
:1023C0000130E5E70025284642B070BD10B4D0E9E1
:1023D000013401686210E4075DF8044B01EB020070
:1023E00044BF8A58D358184730B50446BDB00025BD
:1023F000206913F074F80328FAD8DFE800F04C02E3
:102400001414D4F8343203B19847D4F82C2232B1E2
:1024100004F59671206913F066F8C4F82C5220690F
:1024200013F069F8E4E7C4F82051F022C4F824510D
:102430006946C4F82851206913F053F800228242FB
:102440001DDAD4F82831B3F5807F18D0D4F82831BC
:10245000B3F5807F11D0D4F820311DF80210234449
:1024600083F82010D4F820310133DBB2C4F82031D6
:10247000D4F828310133C4F828310132DFE7D4F829
:102480002831002BB4DDD4F83032002BB0D0D4F892
:1024900028019847ACE702F08FFBA9E77FB50368F6
:1024A00004460E465B6A9847A42018F059FAB4F91E
:1024B0001A20B4F91810054612F0EEFF71002846F4
:1024C000256113F005F80D4B694604F50E70039372
:1024D0000B4B009401930023029318F045FE6846CD
:1024E000FEF7ECFF04B070BDA421284618F06CFA8A
:1024F00030F0ACFE6846FEF7E1FFF9E7189D0908E9
:10250000E92304082DE9F7430F4699460021144BAF
:1025100000F140050446036090460161284618F02A
:1025200033FD04F15406304618F0CEFC0A9B4246B7
:102530003946204600934B4618F00AFE0CE0304620
:1025400018F000FD284618F064FD201DFEF7B6FFC8
:1025500030F07CFEF6E7F8E7204603B0BDE8F083F4
:1025600058C9090837B54FF47A730025044601832A
:10257000428329464FF48072C0E901530F4BC0E9F2
:102580000455036020304EF003FD0D4BC4F820517C
:102590004FF40062C4F824511821009304F50E7022
:1025A000C4F828512B46C4F82C52C4F83052C4F851
:1025B0003452FFF7A7FF204603B030BD389D09080D
:1025C000249D090870B50B20154E02F0ABFA0446A5
:1025D0000C20144D02F0A6FA21460246124C304659
:1025E000FFF7C0FF3046114E2A46214617F060FF24
:1025F000162217213046FFF7B5FF30460C4E2A460B
:10260000214617F055FF7B227C213046FFF7AAFFB9
:102610002A4621463046BDE8704017F049BF00BF4A
:10262000E42A00240000002485220408D82D002478
:10263000CC300024002070470020704700207047F5
:1026400000207047002070477047036853F8683CCB
:10265000184470477047036853F8743C1844704737
:10266000D0F8100118B1036853F8843C184470473F
:1026700038B504460D46A1B9136823609DB9526868
:1026800053F8843CE250D4F880301BB19B6804F1CD
:1026900074009847AB0702D5204610F0EDFC2046A9
:1026A00038BD024BE9E7014A0023EBE720B30908F4
:1026B0000A460021FFF7DCBF00220221FFF7D8BF46
:1026C000D0F800C0ACF1240CDCF800C06044F3E7A3
:1026D00010B50446FFF7F0FF8421204618F074F986
:1026E000204610BDD0F800C0ACF1240CDCF800C0CE
:1026F0006044EDE738B50D460431044610F003F9A7
:10270000EB682046C4F8843053F8843C2A6923449B
:10271000C3F884202B68236053F8843C6A69E25034
:10272000AB69C4F8843038BD0B4B10B50360134659
:102730000A460A49044610F0E6F804E0204610F084
:102740009BFC30F083FD064B2046236003F580732D
:10275000C4F8843010BD00BF60B4090894A0090813
:1027600030A1090810B50446006808B118F076F9E0
:10277000204610BD0B4B10B5044640F8643BFFF7F4
:10278000F1FF04F14C00FFF7EDFF04F13400FFF717
:10279000E9FF04F11C00FFF7E5FF201DFFF7E2FF52
:1027A000204610BD909D09082DE9F0410022054604
:1027B0001C4B0446114645F8043B284610F0DFFE4A
:1027C00004F11C0600223046114610F0D8FE04F138
:1027D000340700223846114610F0D1FE04F14C08AF
:1027E00000224046114610F0CAFE002204F16400A7
:1027F000114610F0C4FE10E04046FFF7B3FF384624
:10280000FFF7B0FF3046FFF7ADFF2846FFF7AAFFFE
:1028100030F01CFDF3E7F5E7F7E700232046E36718
:10282000BDE8F081909D090870B504460D4609BBCE
:102830001368236005BB516953F8843CE150F5B936
:102840009169234643F8841FDDB902F10C01086841
:10285000C4F884004E6850F8841C5E509DB9111D68
:102860002046FFF725FFAB0702D5204610F004FCF9
:10287000204670BD054BDCE704490023DEE7044930
:10288000DFE70449E3E70449EAE700BF30A10908AC
:1028900030A209089CA0090894A00908002202217E
:1028A000FFF7C2BFA0F18400F8E7D0F800C0ACF198
:1028B000240CDCF800C06044F0E70000054B10B5C4
:1028C000044640F8883BFFF7E9FF2046FFF752FF38
:1028D000204610BDB4A2090810B50446FFF7DEFF7C
:1028E0008821204618F070F8204610BDA0F1840021
:1028F000F2E7D0F800C0ACF1240CDCF800C0604472
:10290000EAE70A460021FFF78FBF000038B5124CF6
:102910002046FFF749FF114B2360002384F88430E1
:1029200005F0E6FB05460FF07CFD0246294604F162
:102930008800FFF7F9FE04F18800094A0949C4F844
:1029400010012046BDE8384017F0B2BD0248FFF73D
:1029500011FF30F07BFC00BFC0330024B4A2090893
:1029600000000024BD280408CB68C3600BB15B687D
:1029700018477047002070470020704730B5A1F11C
:102980001004002500F00F02CD7302390009D3B204
:10299000092ACCBF373330330B748C42F2D130BDAF
:1029A0002DE9FF470024061D05468A4690469946B4
:1029B000009423464FF0FF32B1213046CDE9014467
:1029C00013F003F829682846DDE90C23CDE900233C
:1029D00042464F694B465146B847009423464FF054
:1029E000FF32C1213046CDE9014412F0EEFF20460E
:1029F00004B0BDE8F0872DE9D04F9B4603689246AE
:102A000004469B6ADDE90889984702460B46504612
:102A1000594631F0CBF8134302D00020BDE8D08FE7
:102A2000236820469B6A984702460B464046494623
:102A300031F0BCF81343F0D11AEB080623682046A6
:102A40004BEB09079B6B9847B94208BFB0422CBFBC
:102A500001200020E2E701682DE9F04114461D46FF
:102A6000096B0646884702460B462046294631F048
:102A70009DF8134302D00020BDE8F081DDE9062374
:102A80003046A71845EB030817F1FF323368196B7E
:102A900048F1FF33884702460B463846414631F03D
:102AA00085F81343E7D1336830469B6B984741451F
:102AB00008BFB8422CBF01200020DDE72DE9D04F30
:102AC0009B460368924604465B6ADDE9088998479D
:102AD00002460B465046594631F068F8134302D07F
:102AE0000020BDE8D08F236820465B6A98470246E5
:102AF0000B464046494631F059F81343F0D11AEBE2
:102B00000806236820464BEB09079B6B9847B942A0
:102B100008BFB0422CBF01200020E2E7074B10B5F0
:102B200004460360806A08B116F0E4F9236913B122
:102B30009B68201D9847204610BD00BF3CB6090881
:102B400010B50446FFF7EAFF4FF48271204617F0F4
:102B50003BFF204610BDC220704700B5C5B016220D
:102B6000172103A812F05CFC4FF4A17302AA1021F4
:102B7000ADF80830002303A80093022312F080FB75
:102B800003A8FFF7CBFF45B05DF804FB03A8FFF7F0
:102B9000C5FF30F05BFB000037B51F481F4D0378C1
:102BA000BFF35B8F13F0010F0DD117F099FC50B1FB
:102BB0001A2017F0D5FE1A2200214EF0E9F92860FC
:102BC000154817F0AFFC164819F026FF1A2200230B
:102BD00029681348CDE9002300230022FFF7E0FE17
:102BE000044628680378B52B0CD10E4B01221860DF
:102BF0000D4B1A700A4819F0F3FDB4FA84F040093D
:102C000003B030BD1A2117F0DFFEF3E7024817F0DA
:102C10008FFE30F01BFB00BFFC3400240C37002477
:102C2000003500241800002408370024014B1868E0
:102C3000704700BF180000240D4B187830B10D4BC1
:102C40001B689A8840F202439A420FD80A4B9B6D48
:102C500003F46043B3F5004F07D0064B1B68587868
:102C6000172894BF0020012070470020704700BF44
:102C70000837002418000024004402581D4B01218D
:102C80001D4AA62070B51A6002F00CF80121A6209A
:102C900002F088F8FFF761FF184B43F2D2021A6086
:102CA000FFF77AFF164B1B7833B1164B1B689A88D7
:102CB00040F209439A421BD8134B9B6D03F46043C7
:102CC000B3F5004F14D001F047FF104D044601F05A
:102CD00055FF064601F052FF801BA842FAD901F0C9
:102CE0003BFF001B642803D0BDE870402DF004B901
:102CF00070BD00BFD834002400400058004000528E
:102D00000837002418000024004402589F86010060
:102D100010B5044620F0EEFF2146FFF72FFE20F00D
:102D2000EFFF04F11001FFF729FE20F0EFFF04F19F
:102D30002001FFF723FE302010BD000008B54DF63E
:102D400059720021074828F0FAF8BFF34F8F06495F
:102D5000064BCA6802F4E0621343CB60BFF34F8FA7
:102D600000BFFDE7D834002400ED00E00400FA05C0
:102D700010B5002386B00D4A66210D4CCDE9033213
:102D80005A233C222046CDE901313D233B210093CB
:102D9000572319F08FFC074B074A20460749236049
:102DA00006B0BDE8104017F083BB00BF005A6202B6
:102DB00000350024C0A2090800000024FD2D0408ED
:102DC00038B5074B0546044645F8BC3B19F008FDED
:102DD000284618F0B7F8201D12F036FE204638BD00
:102DE00078D5090810B50446FFF7EAFF4FF40271E1
:102DF000204617F0E9FD204610BD0000034B10B53A
:102E000004460360FFF7DCFF204610BDC0A209089E
:102E100010B50446FFF7F2FF4FF40271204617F099
:102E2000D3FD204610BDD0E90030184738B505461F
:102E3000FFF791FE854209D2054C04EB051460684A
:102E400020B103685B6898470023636038BD00BF0A
:102E50001C00002408B501F051FEC0B2FF2803D0C9
:102E6000BDE80840FFF7E2BF08BD000010B5C0E9AB
:102E70000012024C0022C460826010BD10A3090839
:102E80002DE9F04F044685B0884617469946FFF76E
:102E900062FE844239D2364D4FEA041A05EB0A022B
:102EA000526812B12046FFF7C1FF204601F03AFEFA
:102EB0008346502017F054FD5946064612F056FB43
:102EC000022F4A464146684622D1FFF7CFFF6946A6
:102ED000304612F075FB6846FEF7F0FA41464A4666
:102EE0006846FFF7C3FF6946304612F085FB684627
:102EF000FEF7E4FA05EB0A03D9685E6029B9032FEF
:102F00001CD10221204601F089FE05B0BDE8F08FFA
:102F1000032F09D1FFF7AAFF6946304612F06CFB78
:102F20006846FEF7CBFAE5E7FFF7A0FF69463046B3
:102F300012F046FB6846FEF7C1FADBE7042F08BF34
:102F40000321DFE75021304617F03EFD30F07EF9D7
:102F50006846FEF7B3FAF9E76846FEF7AFFAF5E719
:102F60006846FEF7ABFAF1E76846FEF7A7FAEDE729
:102F70001C0000242DE9FF4180460D4617461E46E1
:102F800001F0BCFDC0B2FF280BD0404601F0B6FDF9
:102F900033463A462946C0B2FFF772FF04B0BDE897
:102FA000F081502017F0DCFC4146044612F0DEFAB6
:102FB000022F32462946684615D1FFF757FF69466A
:102FC000204612F0FDFA6846FEF778FA29463246A6
:102FD0006846FFF74BFF6946204612F00DFB684636
:102FE000FEF76CFADAE7032F09D1FFF73FFF6946D6
:102FF000204612F001FB6846FEF760FACEE7FFF7C5
:1030000035FF6946204612F0DBFA6846FEF756FAAD
:10301000C4E75021204617F0D7FC30F017F9684676
:10302000FEF74CFAF9E76846FEF748FAF5E7684616
:10303000FEF744FAF1E76846FEF740FAEDE70023B1
:10304000FFF798BF70B590F8383105461446F3B9CC
:103050000368DB69984704F4706304F00F02B3F56A
:10306000407F04F0F0030CBF07210821302B0CBF78
:1030700002230123012A08D0901E42424241A8693E
:10308000BDE87040006812F0E2BF0222F7E770BDB1
:1030900010B590F8383104462BB9A369186813F0BD
:1030A00017F80028F9D010BD38B590F8385104460B
:1030B000A5B983695BB1186848B10368DB689847B4
:1030C000A36904211D60A06917F07EFCA56100239F
:1030D000C4F82831C4F82C31C4F8303138BD13B5E8
:1030E00090F8383104466BBBA369186812F0C6FF2C
:1030F00040B316F001FDA36901220DF10701186824
:1031000003685B699847D4F83031B3F5807F16D0F7
:10311000D4F83031B3F5807F11D0D4F828319DF840
:103120000720234483F82820D4F828310133DBB268
:10313000C4F82831D4F830310133C4F8303116F0F6
:10314000F1FCD1E702B010BD10B4D0E90134016840
:103150006210E4075DF8044B01EB020044BF8A589B
:10316000D358184708B590F838313BB1012001F029
:1031700011FD0648BDE8084001F01ABB82691AB18A
:103180001368003318BF0123184608BD944100247A
:103190007FB590F8383104460E46002B36D185694C
:1031A00025B9042017F0DCFBA0610560A36918684D
:1031B00028BB8C2017F0D4FB3346B4F922200546F7
:1031C000B4F9201013F018FAA3691D60B4F9242093
:1031D000531C06D0A0690321B4F92630006813F00F
:1031E00019FAA369186888B10E4B00226946009449
:1031F00003930D4B0292019312F087FF03E03146D7
:1032000012F012FFE2E76846FEF758F904B070BD0D
:103210008C21284617F0D8FB30F018F86846FEF7E6
:103220004DF9F9E71CA30908DF30040870B504461E
:103230000D4601F0BDFA30B12368294620461B6CCB
:10324000BDE87040184770BDA0F59860EEE700003B
:1032500013B590F8383104468DF807102BB1C9B278
:103260000B48FFF7E3FF02B010BDA369186812F026
:103270002FFF0028F9D0A36901220DF1070118687A
:1032800003681B699847013018BF0120EBE700BFB6
:10329000944100242DE9F04107468846164601F086
:1032A00087FA80B10024A6420ED9351B08EB040131
:1032B0003846B5F5007F28BF4FF400752A462C44E8
:1032C00000F018FFEFE704462046BDE8F081A0F5C6
:1032D0009860DFE770B590F8383105460E46144621
:1032E0002BB10F48FFF7D6FF0446204670BDAB69EF
:1032F000186812F0EDFE0028F9D0AB6901211868BA
:10330000D0F8883088301B6B9847AB69224631462D
:10331000186803681B699847013008BF0024E4E778
:103320009441002430B50446C3B001F099F9054634
:10333000D4F8D835C3F58073984203DDD4F8D85556
:10334000C5F580752A4601AB02A9204600F0C9FFE9
:10335000019902AB00226D1A1D44D4F8D835B3F59B
:10336000807F19D08A4217D0D4F8D835B3F5807F42
:1033700010D0D4F8D035A85C234483F8D004D4F816
:10338000D0350133DBB2C4F8D035D4F8D8350133A9
:10339000C4F8D8350132E0E743B030BD38B5044653
:1033A00000F026FB2046FFF7BDFFD4F8D855204695
:1033B00000F026FB284638BDA0F59860EEE7000037
:1033C00010B590F8383104462BB10648FFF7E6FFF8
:1033D0000446204610BD16F08FFBD4F8304116F09D
:1033E000A1FBF6E79441002438B5044600F000FB49
:1033F0002046FFF797FFD4F8D8354BB1D4F8D43531
:10340000234493F8D054204600F0FAFA284638BDF9
:103410004FF0FF35F7E7A0F59860E5E710B590F8B5
:10342000383104462BB10B48FFF7DEFF0446204637
:1034300010BD16F061FBD4F830313BB1D4F82C014B
:10344000044494F8284016F06DFBF0E74FF0FF3489
:10345000F9E700BF9441002438B5044600F0C8FAEB
:103460002046FFF75FFFD4F8D835A3B1D4F8D435A0
:10347000234493F8D054D4F8D4350133DBB2C4F8E4
:10348000D435D4F8D835013BC4F8D835204600F0FF
:10349000B7FA284638BD4FF0FF35F7E7A0F598603A
:1034A000DAE7000010B590F8383104462BB1114826
:1034B000FFF7D2FF0446204610BD16F01DFBD4F8DE
:1034C00030319BB1D4F82C31234493F82800D4F840
:1034D0002C310133DBB2C4F82C31D4F83031013B4C
:1034E000C4F83031044616F01DFBE4E74FF0FF341A
:1034F000F9E700BF9441002408B54FF48072002121
:103500004DF046FD0022C0F80021C0F80421C0F8AB
:10351000082108BD2DE9F84300242D4D4FF47A7899
:103520002C4F202605F128002F60EC61C5E90148E9
:10353000C5E90564FFF7E0FF01230E2085F8383167
:1035400001F0F0FA244D81460D2001F0EBFAA5F8C8
:1035500020904FF6FF79688405F128002F60EC6118
:10356000A5F82490A5F82690C5E90148C5E90564A9
:10357000FFF7C2FF85F838410F23184D2B845623DF
:1035800005F128002F606B845823EC61AB8459232C
:10359000C5E90148EB84C5E90564FFF7ADFF85F88F
:1035A000384198230E4D2B84992305F128002F6074
:1035B000EC616B84A5F82490A5F82690C5E9014834
:1035C000C5E90564FFF798FF85F83841BDE8F88341
:1035D000C43A002430A30908103700244C380024D2
:1035E00088390024002070477047704710B5D0F824
:1035F0008C452CB1236820465B689847A468F8E79F
:1036000010BD38B50D46D0F88C4534B1236820463E
:1036100029469B689847A468F7E738BD004870477B
:10362000F0A30908054B10B50446036014F007FB2E
:10363000204614F01DFB204610BD00BF70A30908F2
:1036400010B50446FFF7EEFF4FF4B261204617F0C5
:10365000BBF9204610BDF7B5002305460E46D0F84D
:103660008C45A4B1236831460DF103022046DF6882
:1036700001ABB8479DF803100346042905D0019A11
:10368000284613F041FD03B0F0BDA468E9E7019AB4
:103690009DF80310F4E770B505460E4622B10021EF
:1036A000BDE8704013F032BBD0F88C455CB12368A4
:1036B0000022314620461B69984710B10121284657
:1036C000EEE7A468F2E72146F9E770B50E46054635
:1036D000D0F88C4500213CB12368314620465B6917
:1036E0009847A4680146F6E72846BDE8704013F005
:1036F00007BCF8B505460E461746D0F88C453CB1D8
:10370000236820463A4631469B699847A468F6E705
:1037100028460121BDE8F84013F050BC70B50021E7
:1037200086B0044613F0E8FE00234FF48975A188A3
:10373000EF26ADF806302389ADF8045002258DF848
:1037400010301B0AE2888DF8113040F201238DF809
:103750000750ADF8123040F203138DF809500125DF
:10376000ADF8143004F10A038DF8086005AE8DF849
:103770000A501C468DF80C1001AD090A8DF80E2078
:10378000120A8DF80B008DF80D108DF80F202A46C7
:10379000083303CAB24243F8080C43F8041C154628
:1037A000F5D1128820461A8006B070BDF8B5002405
:1037B00006460D46274630464EF082F9A04207D90C
:1037C000335D05F8143005EB440301345F70F2E714
:1037D000400000F0FE00F8BD38B50446D0F88C5526
:1037E00035B12B6828461B6A984710B9AD68F7E7D2
:1037F000284640F2023304F24A51A4F84835FFF754
:10380000D5FF94F84835184484F8480504F5A960B4
:1038100038BD000040F2023300F20A5110B50446F0
:10382000A0F808350548FFF7C1FF94F8083518449B
:1038300084F8080504F5A16010BD00BF5CA3090869
:1038400040F2023310B50446A0F8C83400F2CA4072
:10385000FFF75EFA94F8C834184484F8C80404F5F5
:10386000996010BD2DE9FF4100231D4A044600F573
:103870004E788DF80A30092590F888350192FA22A1
:103880008DF8083001238DF80C208DF80930C02305
:103890008DF80B3001AB03CBC4F83803C8F8041023
:1038A00088F80820D4F88C658EB133680021304642
:1038B0001B689847478805F54E7300F10901093FD9
:1038C000E0183A463D444DF065FAB668ECE784F8F6
:1038D0003A5340462D1284F83B5304B0BDE8F081C2
:1038E0000902FFFF73B504460D4616462AF00EFD89
:1038F0004FF4807301462A4620460093334613F066
:10390000C3FD024B2046236002B070BD70A30908BE
:1039100010B5D0F88C350446A3B9C0F88C1594F8CE
:10392000883508464A790B7194F88835134484F831
:1039300088350B685B6A98472389184420810120E9
:1039400010BD13469A68002AFBD19960E7E71FB5BE
:10395000044613F093FD0146684612F01DFF402116
:10396000684612F095FFD4F88C4534B12368694657
:103970002046DB699847A468F7E7684612F013FF12
:1039800004B010BD684612F00EFF2FF05FFC10B5BA
:103990000446FFF7DCFF2046BDE8104013F0DEBC14
:1039A0000F4808B50378BFF35B8FDB0711D416F01F
:1039B00097FD70B140F25B2242F241310948FFF7B6
:1039C00091FF074816F0AEFD074A0849054816F072
:1039D0006FFD044808BD024816F0AAFF2FF036FC20
:1039E000003C0024043C0024000000242536040888
:1039F00010B5FFF7D5FF0368BDE810405B6F1847AF
:103A000010B5FFF7CDFF0368BDE810409B6F184766
:103A100010B5FFF7C5FF0368BDE81040DB6F18471E
:103A200013F076B813F034B813F062B870477047EB
:103A30007047436A93F878007047D0F8A404704741
:103A4000012070470048704760A509082DE9F0473C
:103A500094B004460F464B22002101A84DF098FA7D
:103A60002679D4F8A434751C94F80E90002B94F8A1
:103A70000C80EDB294F80DE014BF05200020002F5B
:103A800040F0938040F2092309218DF81D0042F295
:103A90000540ADF804304FF481738DF81510012105
:103AA000ADF808308023ADF81E0010208DF80B30E3
:103AB00032234FF0040A24278DF80C3008234FF0EE
:103AC000030C4B228DF80D300B238DF819101D348B
:103AD0008DF80E3040F202238DF81C10ADF8103036
:103AE00002238DF8210005208DF822108DF8251075
:103AF0008DF8271006218DF806208DF80F608DF8BF
:103B000012308DF817608DF81A308DF81B308DF853
:103B100023008DF826C08DF82A308DF82B108DF8F3
:103B20002C008DF816A08DF824708DF828A08DF843
:103B300029708DF82D708DF82E1007218DF82F60CB
:103B400041F202068DF831108DF8411040F2075114
:103B50008DF83050ADF8366040F209468DF83A5095
:103B600040F602258DF832008DF842002046ADF86F
:103B700048100DEB0A018DF833908DF834C0ADF884
:103B80003860ADF83C508DF843808DF844308DF8A6
:103B900046308DF84AE08DF84B308DF84D304DF0C1
:103BA000F9F8204614B0BDE8F0870020FAE70000DD
:103BB0000A4B10B504460360FFF7F2FE14F03FF81D
:103BC00004F5247012F0FEFE04F17C0012F0FAFEFF
:103BD00004F1700012F0F6FE204610BD20A5090881
:103BE00010B50446FFF7E4FF4FF49561204616F048
:103BF000EBFE204610BDFFF70BBF0000034B10B5D6
:103C00000446036012F04EFD204610BD38A409089A
:103C100010B50446FFF7F2FF2821204616F0D4FE27
:103C2000204610BD034B10B50446036012F03AFD68
:103C3000204610BD08A4090810B50446FFF7F2FF9E
:103C40003421204616F0C0FE204610BD034B10B5AF
:103C50000446036012F026FD204610BD20A409088A
:103C600010B50446FFF7F2FF3821204616F0ACFEEF
:103C7000204610BD38B51E4B0D4604464FF4007269
:103C80001968C0F80F1099889B79A0F813100221C9
:103C90004375284612F0F2FD4FF4007220730221A2
:103CA000284612F0F0FD4FF400726073032128469D
:103CB00012F0E4FDA073284612F076FD20B9AF2281
:103CC0000C490D4815F02CFE04F185020023C4F8C0
:103CD000882204F2992284F8783084F88430C4F879
:103CE0008C3284F89832C4F89C24C4F8A03438BDCF
:103CF00054A40908F9A4090804A509082DE9F34109
:103D000004460E461546FFF783FEF28823799A4251
:103D100037D1002D35D17778012F2ED1F378202B94
:103D200027D13289072A24D104F10F0804F116059E
:103D3000404629464CF0FCFFD0B1D4F81630C4F808
:103D40000F30638B207CE17BA4F8133001EB002162
:103D5000E57C607C237F01EB00410095A07C256819
:103D6000637501EB0061237D2046627D6D6BA84782
:103D70003D46F378212B08BF0125284602B0BDE857
:103D8000F0810025F9E710B50446FFF741FEFFF783
:103D900007FE217B13F0F8FD04F1850304F17C009C
:103DA000C4F888320023C4F88C3284F8843012F0CE
:103DB000BEFD94F884302BB923682046DB6BBDE848
:103DC0001040184710BD000070B50446FFF720FEF4
:103DD000D4F8A0542DB140F2DD120F490F4815F070
:103DE0009FFD04F29923C4F89C34FFF7D9FD617B51
:103DF00013F026FD84F89852C4F8A00404F524704A
:103E000012F095FD94F898322BB9236820469B6BED
:103E1000BDE87040184770BDF9A4090860A40908FE
:103E200010B4D0E9013401686210E4075DF8044B76
:103E300001EB020044BF8A58D358184770B586B0CA
:103E40000546FFF7E5FD02ACFFF7AAFD0023A97BBD
:103E500000944FF400720593032313F099FA20465F
:103E6000214EFDF72BFBFFF79BFD204A297B022308
:103E700003920022009404924FF40072059602957A
:103E800013F086FA2046FDF719FBFFF789FD184B62
:103E9000697B4FF400720393002300940493022380
:103EA0000596029513F074FA0CE02046FDF706FB28
:103EB0002FF0CCF92046FDF701FBF9E72046FDF78E
:103EC000FDFAF5E72046FDF7F9FAFFF769FD4FF433
:103ED0000073D5F89C24697B13F052FC012085F80F
:103EE000980206B070BD00BF48A40908873D0408C9
:103EF000C93D040802232DE9F04143710023044623
:103F0000054683609046144B04F17C0645F8703BEF
:103F1000284612F0FFFC304612F0FCFC04F5247732
:103F2000384612F0F7FCC4F8A484FFF739FD2146A7
:103F3000FFF7EEFC0CE0384612F044FD304612F07C
:103F400041FD284612F03EFD2FF080F9F6E7F8E734
:103F50002046BDE8F08100BF20A5090870B50446E1
:103F60000D46FFF755FD84F87850002D3ED194F8AA
:103F7000843033B1FFF714FD217B13F0D9FA84F8B4
:103F8000845004F1850304F17C0600253046C4F812
:103F90008832C4F88C5212F0CAFC304612F0C0FCD1
:103FA00028B94FF4A2721449144815F0B9FC94F8DA
:103FB000983233B1FFF7F4FC217B13F0B9FA84F89F
:103FC000985204F2992304F52475C4F89C34002314
:103FD0002846C4F8A03412F0AAFC284612F0A0FC2F
:103FE00020B94FF4A77204490548DEE704F17000D8
:103FF000BDE8704012F09BBCF9A409086EA4090842
:104000007FA4090810B50446FFF702FD00212046F1
:10401000BDE81040FFF7A2BF38B50D460446FFF7D4
:10402000F7FC042D05D020460021BDE83840FFF7FD
:1040300095BF38BDF8B5164604460D461F46FFF736
:10404000E7FC0423EA88337023799A4225D1697802
:10405000012922D1EA78212A08D0222A0BD0202A4D
:104060004FF000001BD13070163401E00F34317076
:1040700007203C60F8BDAB88204613F0010308BF61
:104080001946FFF76BFFAB8803F00103E366AB88CB
:1040900003F00203A366022333700020EAE7032340
:1040A0003370E7E710B58AB00446FFF7A1FC684615
:1040B00012F0ECFA0D4B694604F17000009309947C
:1040C00012F04DFC2046FFF79BFC094B002168468F
:1040D0001A6812F027FB6846FFF790FD0AB010BD82
:1040E0006846FFF78BFD2FF0B1F800BF38A4090830
:1040F0005CA4090870B58EB004460E461546FFF75D
:1041000077FC01A812F0C2FA114B01A904F17C005E
:10411000019300230C958DF83430CDE90A4612F056
:104120001EFC2046FFF76CFC0A4B002101A81A6810
:1041300012F0F8FA04E001A8FFF774FD2FF086F8FA
:104140009DF8344001A8FFF76DFD20460EB070BD0C
:1041500008A409085CA4090810B50446FFF758FC38
:1041600094F884307BB9D4F88C3263B1FFF718FC33
:10417000D4F88C3204F18502217B13F0A1FB10B13D
:10418000012384F8843010BD2DE9F8431E4604460F
:10419000894690469DF82070FFF72AFC0023336083
:1041A00094F87830E3B194F88430CBB9D4F88C52D9
:1041B000C5F50075454528BF4546B8F1000F05D047
:1041C0002A464946D4F888024CF0E4FDD4F88C32F3
:1041D0002B44C4F88C32356017B12046FFF7BCFF82
:1041E0002046BDE8F843FFF70BBCF0B50446406A33
:1041F00085B0012690F878502DB984F830503546B6
:10420000284605B0F0BD04AB0027D4E90A1243F8F4
:10421000047D0096FFF7B8FF0399E36AA26A5B1A70
:104220000A44E362A26213B984F83060E8E7606A86
:104230003D46FFF791FFE3E72DE9F0431C4691B0BF
:10424000054689469046FFF7D3FB002C4FF0000649
:1042500002A806BF01AC01270027266012F016FA5B
:10426000134B02A905F5247002938DF83C708DF86C
:104270003D60CDE90B59CDE90D8412F070FB284665
:10428000FFF7BEFB0B4B314602A81A6812F04AFA40
:1042900004E002A8FFF7DAFC2EF0D8FF9DF83D40BD
:1042A00002A8FFF7D3FC204611B0BDE8F08300BFA1
:1042B00020A409085CA4090810B5D0F8A03404466D
:1042C00073B990F898325BB9FFF76AFB4FF400734B
:1042D00004F29922617B13F053FA012384F8983297
:1042E00010BD70B504461E4600230846336094F89E
:1042F0007830EBB194F89832D3B9D4F8A054D4F80C
:104300009C14954228BF15462A464CF043FD356063
:10431000D4F89C34D4F8A0242B44551BC4F89C3406
:10432000C4F8A05425B92046BDE87040FFF7C4BFCB
:1043300070BD37B50446406A90F878502DB984F8BE
:1043400035500125284603B030BD02AB002243F8AA
:10435000042DD4E90A12FFF7C4FF0199A26A0A44A6
:10436000A262226B13680B4413600199E36A5B1A23
:1043700094F83410E36209B9126802B91BB9012339
:1043800084F83530DEE7606A0025FFF795FFD9E74E
:104390006FF01500704700290CBF6FF01800002067
:1043A0007047012070476FF0150070476FF01500DF
:1043B00070471120704770477047704703689B6CC7
:1043C0001847A0F59860F9E7704770477047704745
:1043D0000368184710B50446012000F0DBFB94F891
:1043E000780010BDA0F59860F4E7000038B54FF0F4
:1043F000FF320123FF210B4816F025FD0A4D00F086
:10440000ABFB044695F878301BB1012000F0C2FBED
:10441000F8E700F0A1FB001BC728F6D9BDE838403B
:10442000FEF78CBCCC4700249441002407B502ABB6
:10443000012243F8041D1946FFF75CFE18B10198EC
:1044400003B05DF804FB4FF0FF30F9E7A0F595608D
:10445000FFF7ECBF07B5002302A9012201F8013DD7
:10446000FFF7EAFE20B19DF8070003B05DF804FBFA
:104470004FF0FF30F9E7A0F59560FFF7EBBF2DE9AE
:10448000F8430446884617461E46089DFFF7C0FAC3
:10449000D4F8F095B9F1000F04D02B4632463946D6
:1044A0004046C847C4F8E085C4F8E475C4F8E86538
:1044B000C4F8EC55BDE8F88370B506460025FFF753
:1044C000A7FA06F2F454D6F83436AB4208D920469F
:1044D000103454F8043C1BB11B6801359847F2E7CF
:1044E00070BD0000B0F5966F03D10121014816F0B0
:1044F00089BC7047CC47002410B4D0E9013401686E
:104500006210E4075DF8044B01EB020044BF8A58D7
:10451000D3581847114B03F1780270B50360044675
:10452000C0F8A82400F2F45603F1D80200F2346572
:10453000E833C0F8AC24C0F8C034AE4204D0103D1B
:104540002846FCF7BBFFF8E704F5956014F05AFE27
:104550002046FFF72DFB204670BD00BFA0A509082F
:10456000A0F59560FFF7D6BFA0F2AC40FFF7D2BF31
:1045700010B50446FFF7CEFF4FF4C761204616F092
:1045800023FA204610BDA0F2AC40FFF7F1BFA0F522
:104590009560FFF7EDBF0000F7B51E4604460F46D5
:1045A000154629F0B3FEBDF8243001462A46019392
:1045B0002046BDF820300093334604F59566FFF79A
:1045C00099FC0021304614F0F3FD4FF47A73002576
:1045D00004F59A60C4F8C8342946204BC4F8C45482
:1045E00003F178022360C4F8A82403F1D802E83369
:1045F000C4F8AC244FF48072C4F8C0344CF0C8FC4A
:10460000C4F8D055C4F80056C4F8D455C4F81056B0
:10461000C4F8D855C4F82056C4F83056C4F83456F7
:10462000C4F8F055BFB12046FFF73CFD13E004F29B
:10463000346504F2F457BD4204D0103D2846FCF71F
:104640003DFFF8E7304614F0DDFD2046FFF7B0FAF5
:104650002EF0FCFDF9E7204603B0F0BDA0A5090847
:1046600038B50546FFF7C4F995F898325BB9D5F827
:10467000A044B4F5007F28BF4FF400742846FFF72C
:10468000BFF9204638BD0024F8E70000F0B587B038
:104690000446FFF7ADF93D4B2046C4F8F035FFF76F
:1046A000AFF93B4B2046029405933A4B039300230A
:1046B0000493FFF79DF9D4F83456032D03D920460F
:1046C000FFF79EF915E004EB05166B1C06F2F45695
:1046D000C4F834363046FCF7F1FE059B04EB0515B3
:1046E000C5F80036002BEAD05B6802A9304698472F
:1046F000E5E702A8FCF7E2FEBC2016F031F9264BF4
:10470000002100F14006054603600161304616F0C5
:104710003BFC05F15407384616F0D6FB1F4B4FF40F
:104720008072182128460093002316F011FD1C4BBF
:1047300002A9C4F8DC55284605931A4B02930023BE
:10474000CDE9033316F010FD10E0384616F0FAFB01
:10475000304616F05EFC281DFCF7B0FEBC21284652
:1047600016F032F92EF072FDF2E7F4E702A8FCF73A
:10477000A5FE2046FEF7D6FD07B0F0BD02A8FCF767
:104780009DFEEFE702A8FCF799FEEBE7E54404087D
:1047900078A509082533040858C9090890A509080F
:1047A00084A50908ED430408A0F59860FFF76EBFE3
:1047B00090F878007047000037B50F4C0F4D204639
:1047C00016F010FB2A460E49204615F071FE42F203
:1047D000120301220B4CCDE9003200224FF4F853B2
:1047E00020461146FFF7D8FE2A460749204603B067
:1047F000BDE8304015F05CBECC470024000000242A
:1048000011AE0508944100241545040808B54AF086
:1048100019FC2DE9F04F027D85B005460E46012AB0
:1048200040F08E8000214FF0FF3B04460B465F4670
:1048300094F804C048B2BCF1000F73D194F805C0DD
:10484000BCF1000F6ED1B7F1FF3F17BF0133012359
:1048500038465BB2934201DD1A4683460131023489
:1048600008295DD1002402EB0B03A1460293CB453E
:1048700002DC029B4B4558DC95F8058095F804A0B6
:104880004FEA281708F00F080AF00F035FEA2A1A08
:10489000FAB201926FD05FFA8AF1BAF1090F30468D
:1048A0000393D4BF3031573100F0C9F8039B04445F
:1048B000092B3046039394BF03F1300103F15701F4
:1048C00000F0BDF80444BAF1000F02D1039B03B914
:1048D0004FB1092F019F3046D4BF30375737F9B257
:1048E00000F0ADF80444B8F1090F304694BF08F168
:1048F000300108F1570100F0A2F8B9F1070F0444A4
:1049000004D03A21304600F09AF8044409F1010934
:104910000235B9F1080FAAD1204605B0BDE8F08FE5
:10492000074685E74FF0FF3098E7CB45EED1BBF166
:10493000000FE6D13A21304600F081F80444E0E768
:1049400000F1100700F11309002417F8011B0A22D7
:10495000304600F0A1F880462E21304600F06FF876
:10496000B94540440444F0D10A22E97C304600F0C5
:1049700093F80444D0E7002B9AD1A9E7054B102205
:1049800010B5044603600175002104304CF000FBB3
:10499000204610BDBCA6090870B5074D837405609C
:1049A00000259DF81030057545608560C56001746F
:1049B0004274C37470BD00BFBCA6090807B50121CD
:1049C0000648FFF7DBFF002305481A461946009307
:1049D000FFF7E2FF03B05DF804FB00BFE0470024EF
:1049E000F84700242DE9F04106460D4601EB020888
:1049F0000C464445A4EB050707D03368304614F84D
:104A0000011B1B6898470028F3D13846BDE8F081A8
:104A100070B5044608460D464DF052F8236802462C
:104A2000294620465B68BDE87040184709B1FFF78A
:104A3000EFBF0846704708B5FFF7F8FF08BD0368E9
:104A40001B68184770B58AB00D460023012A98BF2D
:104A50000A220AA901F8043DB5FBF2F402FB145640
:104A60002546F3B2092E94BF30333733DBB201F859
:104A7000013D002CF0D1FFF7D9FF0AB070BD10B492
:104A80002AB90368C9B25DF8044B1B681847D2B253
:104A90005DF8044BFFF7D6BFFFF7F1BF704713B5C2
:104AA000002000900DF0B0FD044610B1009802B057
:104AB00010BD01AB042269460DF084FD20460DF0C7
:104AC000A5FDF3E710B500F069F80A4CFEF7D6F83B
:104AD000FEF766FFFEF75BFF4FF4E1310648FFF794
:104AE000D5FDFBF751FCFCF72FF8002CFBD0AFF302
:104AF0000080F8E7000000009441002470B50546EE
:104B00000024074EFEF727F8E3B2984206D918466C
:104B10001B010134F35EAB42F4D170BDFF20FCE712
:104B20001C00002410B50446FEF715F884423BBF74
:104B30002401024B4FF0FF30185F10BD1C00002411
:104B400010B5044611F007FC204610BD10B5044610
:104B500011F001FC204610BD07B50749684611F069
:104B600037FC4FF47A720023DDE900012EF0CEFF0E
:104B700003B05DF804FB00BF1048002407B50449EA
:104B8000684611F025FC009803B05DF804FB00BFF7
:104B90002848002416F044BA16F000B908B50448B5
:104BA00011F0E3FB0348BDE8084011F0DEBB00BF95
:104BB000284800241048002416F06EBA38B50A4C74
:104BC0000A4D204611F041FC2046094C2A4609496D
:104BD00015F06EFC204611F043FC2A46204606499B
:104BE000BDE8384015F064BC2848002400000024CB
:104BF000104800244D4B0408414B040870B504468E
:104C00000D46164600211C224CF0C2F920463246C1
:104C1000294613F028FC204670BD00002DE9F04124
:104C200007011F4D04460E46EA19D06810B11C2139
:104C300015F0CAFE2046FFF775FF80461C2015F0D0
:104C40008FFE044600211C224CF0A2F9414620466A
:104C500013F006FCEB19012EDC6010D006D3022EF7
:104C600012D0204610F0B1FA022103E0204610F0E5
:104C7000ACFA00212046BDE8F04110F0B2BA20465F
:104C8000BDE8F04110F095BA204610F09EFA0121DF
:104C9000F0E71C21204615F097FE2EF0D7FA00BF52
:104CA0001C00002430B589B004460D46FFF726FFEE
:104CB000C0B2FF2804D02946FFF7B0FF09B030BDCD
:104CC000012D14D00AD3022D1CD00222214601A8A6
:104CD000FFF794FF01A813F04DFBEFE700222146F8
:104CE00001A8FFF78BFF01A813F044FBE6E71C22A5
:104CF000002101A84CF04CF90022214601A813F034
:104D0000B4FBDBE70122214601A8FFF777FF01A8EA
:104D100013F030FBD2E700002DE9F34106460F46C1
:104D2000FDF719FF86422AD21B4D4FEA061805EB04
:104D30000802D468ACB93046FFF7F4FE06461C20E2
:104D400015F00EFE04461C2200214CF021F90097BC
:104D5000002301223146204613F08EFB05EB0803A9
:104D6000DC600E4B0E491A46D3F894008842FBD102
:104D700023683FB1A1680B604FF44073536102B0E8
:104D8000BDE8F081E1681B04F5E71C21204615F021
:104D90001BFE2EF05BFA00BF1C00002400640258CA
:104DA0000003008030B589B005460C46FFF7A6FE2B
:104DB000C0B2FF2804D02146FFF7AEFF09B030BDD6
:104DC0001C22002101A84CF0E3F8294601A813F0A9
:104DD00050FB094B09491A46D3F894008842FBD18D
:104DE000019B2CB103990B604FF440735361E5E7CD
:104DF0001B040499F7E700BF006402580003008019
:104E00001EF0040F0CBFEFF30880EFF309808169F7
:104E100011F8021C002932D101B590E80F10E047CB
:104E2000BDE800508CE80300244B93E80600914253
:104E300008BF70471A6041B91EF0100F10D1204B07
:104E4000186820F0010018600AE02CE9F00F1EF04D
:104E5000100F08BF2CED108A81F822E0C1F838C08D
:104E6000906B92F8221061F0FF0E1EF0100F08BF39
:104E7000B0EC108AB0E8F00F80F309887047114A4F
:104E800013689942FAD801B552F821C00FC8E0471B
:104E9000BDE80050CCF80000704701B501F0D2FB2E
:104EA000BDE80140EFF3098CBEE701B501F08EFBD0
:104EB000BDE80140EFF3098CB6E70000500C002478
:104EC00034EF00E074A70908014608B530B96FF067
:104ED000030000F01FFA6FF0030008BD132001F07B
:104EE0009DFF30B94FF0FF3000F014FA4FF0FF3063
:104EF000F3E70020F1E7000008B5EFF305834BB9B5
:104F0000EFF3108333B9EFF311831BB9DFF814C04B
:104F100000DF08BD6FF0050000F0FCF96FF0050040
:104F2000F7E700BFC94E0408EFF310832BB9EFF386
:104F30001180003818BF012070470120704710B55C
:104F400020B10378F32B01D1002906DA6FF00301B9
:104F500002F06AFA6FF0030010BD00F10C0353E891
:104F6000000F20EA010243E8002404B1F7E7F3E769
:104F7000034610B528B30468806860B110F00302DE
:104F800002D1DB680F2B25D86FF00801002002F05A
:104F90004BFA002014E0DB68002BF5D1104BD3F85E
:104FA000900080B100F088FCB0B10123F32283703F
:104FB0000023446002700B4AC0E90233084B5A6672
:104FC00010BD0446EAE701221021D3F8800000F06A
:104FD000FEFBE9E71346E9E76FF00401D7E700BFFE
:104FE0003C0C0024B950040810B5044610B10378F5
:104FF000F32B07D020466FF0030102F015FA6FF093
:10500000030010BD836863B1204601F077FC0022E5
:105010006FF0020101F01CFEA0680028F4D101F03D
:10502000F5FC00232370A378DB0701D40020E8E718
:10503000064B2146D3F8900010B100F05AFCF5E77A
:10504000D3F8800000F0F7FBF0E700BF3C0C002431
:10505000930710B502F0010422D400F10C0384B1CF
:1050600053E8000F00EA01028A4203D0BFF32F8FFA
:10507000002005E020EA010243E8002404B1EFE744
:1050800010BD53E8000F084203D1BFF32F8F00205B
:1050900005E020EA010243E8002404B1F1E7EFE76C
:1050A000C06801EA00031CB1994218BF0020E7E77D
:1050B000002B08BF0020E3E7F8B50546846804B973
:1050C000F8BD94F823202846616AA768FFF7C0FF5F
:1050D000064638B1204601F01AFC0022314620462F
:1050E00001F0B6FD3C46EAE7F8B50D4617461E4608
:1050F000044620B10378F32B01D1002907DA2046BA
:105100006FF0030102F090F96FF00300F8BDFFF7B4
:105110009FFF0028FAD186B13146432001F07EFE80
:1051200040B1074B20465E69314601F0D5FB756200
:1051300086F823706FF00100E8E76FF00200E5E702
:105140003C0C00242DE9F041064620B10378F32BF6
:1051500001D1002909DA6FF003056FF00301304631
:1051600002F062F92846BDE8F08100F10C0353E833
:10517000002F42EA010543E8005000B1F7E7B468A8
:105180001CB9204601F042FCECE794F8232030469D
:10519000616AD4F80880FFF75BFF074678B194F89E
:1051A00023309B0756BF656A054620EA0505204661
:1051B00001F0ADFB00223946204601F049FD44468E
:1051C000DEE70000024608B5EFF3058333B10020A7
:1051D0006FF0050102F028F9002008BDFFF7A4FEDA
:1051E0000028F4D11046DFF808C000DFF5E700BF63
:1051F000714F040838B502460D46EFF305834BB1F5
:1052000092B96FF003046FF00301104602F00CF93D
:10521000204638BDFFF788FE0028F1D11046DFF8A0
:1052200030C000DF0446F3E71378F32BE9D1002DFB
:10523000E7DB02F10C0353E8001F41EA050443E8F1
:10524000004000B1F7E7104601F044FAE0E700BF84
:105250004551040810B502460C46EFF305832BB107
:1052600021461046BDE81040FFF769BEFFF75CFE1F
:105270000028F5D11046DFF808C000DF10BD00BFE0
:105280003F4F0408F8B504460E4617461D46EFF397
:10529000058343B18CB920466FF0030102F0C4F8D6
:1052A0006FF00300F8BDFFF73FFE0028F2D1204663
:1052B0002B46DFF828C000DFF4E72378F32BEAD190
:1052C000002DE8D1002EE6DB3A4631462046FFF7B6
:1052D000BFFE002808BF6FF00200E3E7E9500408B2
:1052E000024608B5EFF305833BB110466FF00501A8
:1052F00002F09AF86FF0050008BDFFF715FE0028D0
:10530000F3D11046DFF804C000DFF5E7E94F0408E9
:10531000704770477047EFF310832BB9EFF311809C
:10532000003818BF0120704701207047064BDA6A29
:105330003AB1D0695B6C1BB11B69984228BF184613
:1053400070474FF0FF30F5E73C0C0024014BD86864
:10535000704700BF3C0C002408B5094B1A7A022A9A
:1053600008D0032A0AD04FF0FF3002F051F84FF076
:10537000FF3002E0032200201A7208BD0120FCE782
:105380003C0C002408B50A4B1A7A023A012A02D8CA
:1053900040B1012809D04FF0FF3002F039F84FF04A
:1053A000FF3001E002221A7208BD0322FBE700BFB2
:1053B0003C0C002470B5464C237A012B00F085800C
:1053C00033B14FF0FF3002F023F84FF0FF3070BDE3
:1053D000404DEB68E3652B8AD5E90B61A4F85430A6
:1053E000AB683046236400F0DBF908B1C4F8806094
:1053F000D5E90561304600F0D3F908B9D4F88060EA
:105400006667D5E90761304600F0CAF908B9D4F8F3
:105410008060A667D5E90961304600F0C1F908B996
:10542000D4F88060E6676E6B3EB131683046D6E9ED
:10543000022300F020FAC4F88460AE6B3EB13168FC
:105440003046D6E9022300F016FAC4F88860EE6B05
:105450003EB131683046D6E9022300F00CFAC4F8B8
:105460008C602E6C3EB131683046D6E9022300F0E4
:1054700002FAC4F890606E6C3EB131683046D6E9ED
:10548000022300F0F8F9C4F89460AE6C3EB13168C4
:105490003046D6E9022300F0EEF9C4F89860EE6CCD
:1054A0003EB131683046D6E9022300F0E4F9C4F891
:1054B0009C602D6D3DB129682846D5E9022300F096
:1054C000DAF9C4F8A0500123237200207FE700BF5F
:1054D0003C0C002404A7090870B5274C237A012B43
:1054E00007D06FF006004FF0FF3501F091FF28461E
:1054F00070BD01F005FD10B94FF0FF30F3E71F4A12
:10550000FF2382F8223092F8223063F0FF03DB435E
:1055100004D1D268C2F30222531C08E0B3FA83F329
:10552000D268C3F12003C2F302229342F4D9FE22CF
:10553000134E144902FA03F3104A7068DBB2D377B2
:1055400001F0C2FF05460028D6D102F015F820610F
:1055500001F0FEFF0C4801F0D1F901F04FFA336879
:10556000DB074CBF0223032383F31488BFF36F8F41
:1055700002232372BBE700BF3C0C002400ED00E0D7
:1055800004A70908AB4E0408580C002410B50F4CB2
:10559000237A022B13D101F0E3FF01236372BFF3DF
:1055A0004F8F0B4A5168C90003D54FF0006151601D
:1055B000A37204232372BDE81040FFF7B7BE6FF05B
:1055C000070001F025FF002010BD00BF3C0C0024A7
:1055D00000ED00E038B51D4C0546237A042B34D18C
:1055E000FFF7A4FEE26A85422CBF00F1FF332B4691
:1055F00012B1D069C01AD061626C12B11069C01AC0
:105600001061E26813441544E360E3689D4213D1DE
:1056100002230020237201F0F9F900236372BFF323
:105620004F8FA27A22B1A3724FF08052084B5A607A
:10563000BDE8384001F08CBF0133E36001F0A4F90C
:10564000236D002BE1D09847DFE738BD3C0C0024E8
:1056500000ED00E0704738B504460D46FFF758FEF0
:1056600029462046BDE8384001F094BE08B5FFF752
:10567000F1FFEFF3058333B16FF0050001F0C8FED1
:105680006FF0050008BDFFF746FE0028F4D1DFF8F3
:1056900008C000DFF6E700BFB553040808B5EFF314
:1056A000058333B16FF0050001F0B2FE6FF0050025
:1056B00008BDFFF730FE0028F4D1DFF808C000DF96
:1056C000F6E700BFD954040808B5EFF3058333B1FA
:1056D0006FF0050001F09CFE6FF0050008BDFFF7BC
:1056E0001AFE0028F4D1DFF808C000DFF6E700BF9B
:1056F00059530408024608B5EFF3058333B16FF040
:10570000050001F085FE6FF0050008BDFFF703FE00
:105710000028F4D11046DFF808C000DFF5E700BF2D
:105720008553040808B5EFF305832BB16FF005002E
:1057300001F06EFE002008BDFFF7EDFD0028F5D159
:10574000DFF804C000DFF6E78D550408024608B50F
:10575000EFF305832BB16FF00500BDE8084001F0C1
:1057600057BEFFF7D8FD0028F5D11046DFF804C07A
:1057700000DF08BDD555040808B5EFF3058313B164
:10578000054BD86808BDFFF7C6FD0028F8D1DFF843
:105790000CC000DFF6E700BF3C0C00244D530408AA
:1057A000034610B588B1084310F007000DD1172942
:1057B0000AD9196008391022CC185A609C605850D8
:1057C00099684A60D860012010BD0020FCE70346BC
:1057D00070B570B369B3032A2BD80F3100F10804F8
:1057E00021F00706214624684D68601A25F003055C
:1057F000401B864203D920680028F3D170BD5D6844
:105800003243186835445D60034453F8040C083B88
:10581000854288BF5D604B681BB901F108004A6092
:10582000ECE723F00303C818CC504260086008304E
:10583000E4E70020E2E7034610B580B1C9B1A1F169
:10584000080400F108020021A24209D1506820F0AA
:1058500003045868001B586041B95160012010BD15
:10586000106811460028FAD00246EDE713680B6075
:10587000F4E70846F3E730B5C0B189B1C2B1CBB1A6
:1058800000240160C3604361C0E9014202FB01F4EE
:105890001D1905611846013904D1A41A19510121B5
:1058A000084630BD851805602846F4E70146F7E74D
:1058B0001146F5E71946F3E7034610B508B900208D
:1058C00010BD00F1140252E8000F10B9BFF32F8F82
:1058D00004E0016842E8001404B1F4E70028EED0C7
:1058E000043353E8002F511C43E8001404B1F8E7D7
:1058F000E6E730B5F0B1C3688B421BD803698B4231
:1059000018D900F114031A680A60BFF35F8F53E8D7
:10591000002F0C689442F6D143E8001505B1F2E778
:10592000043050E8003F5A1E40E8002101B1F8E77A
:10593000002030BD6FF00300FBE7EFF310832BB9BD
:10594000EFF31180003818BF012070470120704725
:10595000D1E9013223B19A608A681AB15360704765
:10596000C262F9E7036370472DE9F84F894607469D
:1059700038B131B1B0FA80F1B9FA89F30B441F2B79
:1059800008DC6FF003010024002001F063FD2046D5
:10599000BDE8F88F09F1030828F0030808F10C08A6
:1059A00008FB00FB002A5AD09468D2F800A0D2E984
:1059B00004653CB1A10702D1D368332B0DD86FF039
:1059C0000801E0E7D368002BF9D126B3B20701D173
:1059D000AB4522D96FF00901D5E7B6B9002DF9D151
:1059E0002A4B00225946D86FFFF7F1FE06460028E1
:1059F00044D13DB1254B2146D3F8A000002838D032
:105A0000FFF777FF6FF00401BDE7B307E2D1AB45C5
:105A1000E0D800250DE0002DDCD11C4BD3F8A00010
:105A200000B3FFF749FF04460028EBD00125002E04
:105A3000D6D0FA234246394604F10C0023700023E5
:105A4000A570A360C4F804A0C4E90993C4E90B33AA
:105A50003346FFF710FF0D4B0D4A1A6797E7924642
:105A60001646DAE701223421D3F88000FFF7AFFEB3
:105A7000D9E7D3F88000FFF7DEFEC3E75A460021DE
:105A800045F002054BF084FAD3E700BF3C0C00243C
:105A9000215B040800F1280310B553E8002F12B968
:105AA000BFF32F8F04E0511E43E8001404B1F4E764
:105AB0000AB9002010BDC06A01220028F9D0811C5B
:105AC000D1E84F3FC1E8442F04B1F9E7DBB2002B26
:105AD000F0D08068F1E7036B30B5E3B1CD780024F6
