:020000040804EE
:1000000000000824A5CC0608F1CC0608A98E050836
:10001000AF8E0508B58E0508BB8E050800000000F0
:100020000000000000000000000000004D47040830
:10003000F1CC060800000000E7470408F747040871
:10004000F1CC0608F1CC0608F1CC0608F1CC060884
:10005000F1CC0608F1CC0608F1CC0608F1CC060874
:10006000F1CC0608F1CC0608F1CC0608F1CC060864
:10007000F1CC0608F1CC0608F1CC0608F1CC060854
:10008000F1CC0608F1CC0608F1CC060875DD0608AF
:1000900085DD060881DD060891DD0608F1CC06083D
:1000A000F1CC0608F1CC0608F1CC0608F1CC060824
:1000B000F1CC0608F1CC0608F1CC0608F1CC060814
:1000C000F1CC0608F1CC0608F1CC0608F1CC060804
:1000D000F1CC0608F1CC0608F1CC0608F1CC0608F4
:1000E000F1CC0608F1CC060800000000F1CC0608AF
:1000F000F1CC0608F1CC0608F1CC0608F1CC0608D4
:10010000F1CC0608C1C90608F1CC0608F1CC0608F6
:10011000F1CC0608F1CC0608F1CC0608F1CC0608B3
:10012000F1CC0608F1CC0608F1CC0608F1CC0608A3
:10013000F1CC060813760408F1CC0608F1CC0608C9
:10014000F1CC0608F1CC0608000000000000000019
:10015000F1CC0608F1CC0608F1CC0608F1CC060873
:10016000F1CC0608F1CC0608F1CC0608F1CC060863
:10017000F1CC0608F1CC0608F1CC0608000000001E
:10018000F1CC0608F1CC0608F1CC0608F1CC060843
:10019000F1CC0608F1CC0608F1CC0608F1CC060833
:1001A000F1CC0608F1CC0608F1CC0608F1CC060823
:1001B000F1CC0608F1CC0608F1CC0608F1CC060813
:1001C000F1CC0608F1CC0608F1CC0608F1CC060803
:1001D000F1CC0608F1CC0608F1CC0608F1CC0608F3
:1001E000F1CC0608F1CC0608F1CC0608F1CC0608E3
:1001F000F1CC0608F1CC0608F1CC0608F1CC0608D3
:10020000F1CC0608F1CC0608F1CC0608F1CC0608C2
:10021000F1CC0608F1CC0608F1CC0608F1CC0608B2
:10022000F1CC0608F1CC0608F1CC0608F1CC0608A2
:10023000F1CC0608A1CC0608F1CC0608F1CC0608E2
:10024000F1CC0608F1CC0608F1CC0608F1CC060882
:10025000F1CC0608F1CC0608F1CC0608F1CC060872
:10026000F1CC0608F1CC0608F1CC0608F1CC060862
:10027000F1CC0608F1CC0608F1CC0608F1CC060852
:10028000F1CC0608F1CC0608F1CC0608000000000D
:10029000F1CC0608F1CC060810B5054C237833B92B
:1002A000044B13B10448AFF300800123237010BD49
:1002B0000020002400000000C07D0A0808B5034BA0
:1002C0001BB103490348AFF3008008BD00000000E4
:1002D00004200024C07D0A08154B002B08BF134BD7
:1002E0009D46A3F5803A00218B460F461348144AD9
:1002F000121A50F0EDFA0F4B002B00D098470E4B1E
:10030000002B00D098470020002104000D000D486C
:10031000002802D00C4819F073FD4FF09BFC200020
:10032000290006F027FC19F085FF00BF0000080037
:100330000000082400000000D16A04080020002406
:1003400020270224019E050800000000094B30B55B
:100350001A46094CD3F89450A542FBD1036829B141
:1003600081680B604FF44073536130BDC1681B045A
:10037000F7E700BF0064025800030080014834F032
:1003800023BA00BF1C200024F8B5164E0746164DB0
:100390003368B5F90220C31A934221D3134CB5F93F
:1003A000042023689A420ADA01211148FFF7CEFFA0
:1003B00001211048FFF7CAFF2368013B2360B5F90C
:1003C000042023689A420ADD00210948FFF7BEFF96
:1003D00001210848FFF7BAFF236801332360376023
:1003E000F8BD00BF2C20002400020038202000248B
:1003F000B4240024D0240024F8B5164E0746164D28
:100400003368B5F90820C31A934221D3134CB5F9C8
:100410000A2023689A420ADA01211148FFF796FF61
:1004200001211048FFF792FF2368013B2360B5F9D3
:100430000A2023689A420ADD00210948FFF786FF57
:1004400001210848FFF782FF2368013323603760EA
:10045000F8BD00BF30200024000200382420002412
:10046000EC24002408250024F8B5164E0746164D46
:100470003368B5F90E20C31A934221D3134CB5F952
:10048000102023689A420ADA01211148FFF75EFF23
:1004900001211048FFF75AFF2368013B2360B5F99B
:1004A000102023689A420ADD00210948FFF74EFF19
:1004B00001210848FFF74AFF2368013323603760B2
:1004C000F8BD00BF3420002400020038282000249A
:1004D000242500244025002410B51C24012100FB04
:1004E0000444094804442046FFF730FF40F2E2404C
:1004F00003F0F8FF20460021FFF728FF40F2E2401A
:10050000BDE8104003F0EEBF9824002410B51C2471
:10051000012100FB0444084804442046FFF716FF6D
:10052000FA2003F0DFFF20460021FFF70FFFFA203B
:10053000BDE8104003F0D6BF9824002438B5082148
:100540002C4801F02BF801281ED140F2DC542A4D32
:1005500000212846FFF7FAFE0120FFF7D7FF013CF4
:10056000F6D1244D244C0821284601F017F8012823
:1005700007D020460121FFF7E9FE0120FFF7ACFF7D
:10058000F1E71E4B00221A6008211A4801F006F814
:1005900001282ED0174D184C0821284600F0FEFFE8
:1005A000012807D020460121FFF7D0FE0120FFF7E8
:1005B000ADFFF1E740F2DC540F4D00212846FFF774
:1005C000C5FE0120FFF7A2FF013CF6D1094D0A4C00
:1005D0000821284600F0E2FF012807D0204601212B
:1005E000FFF7B4FE0120FFF777FFF1E7034B00228E
:1005F0001A6038BD40240024B424002420200024A4
:1006000038B505212C4800F0C9FF01281ED140F261
:10061000DC542A4D00212846FFF798FE0320FFF7FF
:1006200075FF013CF6D1244D244C0521284600F0ED
:10063000B5FF012807D020460121FFF787FE0320E0
:10064000FFF74AFFF1E71E4B00221A6005211A4806
:1006500000F0A4FF01282ED0174D184C0521284684
:1006600000F09CFF012807D020460121FFF76EFE15
:100670000320FFF74BFFF1E740F2DC540F4D002160
:100680002846FFF763FE0320FFF740FF013CF6D149
:10069000094D0A4C0521284600F080FF012807D0AB
:1006A00020460121FFF752FE0320FFF715FFF1E777
:1006B000034B00221A6038BD40240024EC2400249F
:1006C0002420002470B50421354800F067FF01287C
:1006D0001ED140F2DC54334D00212846FFF736FE90
:1006E0000520FFF713FF013CF6D12D4D2D4C0421C1
:1006F000284600F053FF012807D020460121FFF7CC
:1007000025FE0520FFF7E8FEF1E7274B00221A60DF
:100710000421234800F042FF01282DD0204D214C18
:100720000421284600F03AFF38B920460121FFF79E
:100730000DFE0520FFF7EAFEF2E740F2DC54194D0A
:1007400000212846FFF702FE0520FFF7DFFE013CEF
:10075000F6D1134D134C0421284600F01FFF012849
:1007600007D020460121FFF7F1FD0520FFF7B4FE79
:10077000F1E70D4B00221A600B4C42F6DF66094D83
:100780002368B3420ADC00212846FFF7DFFD05207D
:10079000FFF7BCFE236801332360F1E770BD00BFA3
:1007A000402400242425002428200024044B1B6816
:1007B000C01A282803D900210248FFF7C7BD704797
:1007C0002C200024D0240024044B1B68C01A2828A5
:1007D00003D900210248FFF7B9BD7047302000243B
:1007E00008250024044B1B68C01A282803D90021BF
:1007F0000248FFF7ABBD7047342000244025002499
:1008000038B5154D03F060FE0446AA7C3AB9FFF7EF
:10081000BBFD2046FFF7F0FD2046FFF725FEAB7C31
:100820002BB1FFF74FFFFFF789FEFFF7E9FE0B4AF9
:1008300020460B4B12881A800A4A12885A800A4AAC
:1008400012889A80FFF7B2FF2046FFF7BDFF2046CF
:10085000BDE83840FFF7C6BF000200382020002462
:1008600000000038242000242820002401490248E8
:1008700033F068BF03642D021C200024704710B5BC
:1008800004461C3017F01CFA204610BD10B5044673
:1008900017F016FA204610BD10B504466C3014F05F
:1008A000D0FB04F1480014F0CCFB04F1240014F058
:1008B000C8FB204614F0C5FB204610BD38B50446E1
:1008C0000D461C22002150F003F82046294617F05F
:1008D00076FA204638BD000038B504463421FFF7CB
:1008E000EDFF352104F11C00254DFFF7E7FF432103
:1008F00004F13800FFF7E2FF632104F15400FFF731
:10090000DDFF372104F17000FFF7D8FF762104F1F5
:100910008C00FFF7D3FF972104F1A800FFF7CEFF6B
:100920007F2104F1C400FFF7C9FF7A2104F1E00040
:10093000FFF7C4FF042104F1FC00FFF7BFFF08210B
:1009400004F58C70FFF7BAFF262104F59A70FFF7C3
:10095000B5FF2A4640F6237104F5A87013F0C2FFD4
:100960002A4640F6227104F5E07013F0BBFF2A46D8
:1009700040F6017104F50C7013F0B4FF204638BD49
:100980000000C07F10B504461221FFF797FF8621B3
:1009900004F11C00FFF792FF792104F13800FFF702
:1009A0008DFF992104F15400FFF788FF422104F1E3
:1009B0007000FFF783FF832104F18C00FFF77EFFB7
:1009C000822104F1A800FFF779FF332104F1C4006C
:1009D000FFF774FF0E2104F1E000FFF76FFF2046E0
:1009E00010BD10B50446A43014F02EFA04F15400E2
:1009F00014F02AFA201D14F027FA204610BD10B575
:100A0000044600F58470FFF7ECFF2046FFF7E9FF8E
:100A1000204610BD10B5044600F59E7014F038F85D
:100A2000204610BD2DE9F3414FF47A7300250446AA
:100A30004FF48072C561294604F59E76058404F55D
:100A40002777C0E90153224B03602023C0E9053515
:100A50008923283020F8063C4FF6FF7320F8043C29
:100A600020F8023C4FF034FFC4F8285184F8385184
:100A70007D22C4F82C511821C4F83051304613F0AF
:100A800061FF284603F0E0FC05468D2003F0DCFC06
:100A900080468A2003F0D8FC009043462A4621462F
:100AA000384601F0DBF804F534731C2200211846A7
:100AB0004FF00EFF00220D2117F07DF904E03046C3
:100AC00013F0E6FF32F066F8204602B0BDE8F08190
:100AD000709C090813B506214F4800F0D7F84F4A1B
:100AE00007214F4800F0E8FB36214E48FFF7E6FEAD
:100AF00084214D48FFF7E2FE6A214C48FFF7DEFEF5
:100B00002F214B48FFF7DAFE4A48FFF78BFF4A4A8E
:100B10004A49484819F072F94948FFF7DDFE464A4C
:100B20004849474819F06AF99B21474814F06BFA85
:100B3000A121464814F067FA6721454814F063FA8A
:100B40002721444814F05FFA00243B4A42493E48BA
:100B500019F054F97B237C2298214048CDE90044C8
:100B600000F0FAFA9A2387222D213D48CDE900446E
:100B700000F0F2FA0CE0364814F063FA334814F04F
:100B800060FA314814F05DFA32F004F8F6E7F8E75D
:100B9000294A3449314819F031F93348FFF7F2FE58
:100BA000324800F0A5FE324800F0A2FE7E21314816
:100BB000FFF784FE304800F07DFB1C2200212E4808
:100BC0004FF086FE012219212B4817F0F2F81A4A3D
:100BD0002A49294819F012F91C22002128484FF00F
:100BE00077FE00221E21264817F0E5F81C2200217E
:100BF00024484FF06DFE1F21224817F0D7F80E4A07
:100C000021491F4802B0BDE8104019F0F7B8134859
:100C1000FFF7E7FEB8E700BFC8200024842A0024BD
:100C2000D0200024E4200024002100241C210024E2
:100C3000382100245421002400000024150A04084F
:100C4000C42700247D080408382000245C200024E8
:100C500080200024A420002499080408B42500243E
:100C6000BC260024FF090408982400244024002402
:100C70009425002498250024442400248D08040889
:100C8000602400247C2400247F080408014A018099
:100C900042607047842A0024C8097047C1F380105D
:100CA0007047C1F340107047C1F300107047C1F3A3
:100CB000C0007047C1F3800070470000F7B50446DC
:100CC0000E4602AD0021B0F9000005F8011D03F049
:100CD0000FFD60680F4B0268D76993E80600B847BC
:100CE000606806F07F0103689B689847606801228E
:100CF000294603681B699847606803681B6A984720
:100D0000B4F90000012103F0F3FC9DF8070003B0E3
:100D1000F0BD00BF642A00240721FFF7CFBF000009
:100D200070B505460C46B0F90000002103F0E0FC68
:100D30006868124B0268D66993E80600B047686895
:100D4000214603689B6898476868002103689B6890
:100D500098470021000284B2686803689B6898473E
:100D600004436868A4B203681B6A9847B5F9000099
:100D7000012103F0BDFC204670BD00BF642A0024A1
:100D800037B561F07F010446B0F900008DF804101A
:100D900000218DF8052003F0ABFC60680B4B026866
:100DA000D56993E80600A8476068022201A9036894
:100DB0001B699847606803681B6A98470121B4F96A
:100DC000000003F095FC03B030BD00BF642A00248E
:100DD00038B5044640680D460368DB6A9847012130
:100DE000B4F9000003F004FC0121B4F9000003F0A1
:100DF0007FFC012D4FF00001204634D1FFF75EFF4C
:100E000040F01002D2B220460021FFF7B9FF0021C6
:100E10002046FFF753FF002100F07F022046FFF736
:100E2000AFFF00212046FFF749FF002100F0BF027D
:100E30002046FFF7A5FF00212046FFF73FFF00F007
:100E4000D1020021204642F00202FFF799FF002163
:100E50002046FFF733FF002100F0FE022046FFF797
:100E60008FFF012038BDFFF729FF00F0EF02CAE72E
:100E700010B500210446FFF721FF00F0D102002148
:100E8000204642F00202BDE81040FFF779BF38B5B6
:100E900000210446FFF712FF00F0D1020021204696
:100EA00042F00202FFF76CFF00212046FFF706FF29
:100EB00060F07F0200212046D2B2FFF761FF0A20D6
:100EC00003F00EFB00212046FFF7F8FE40F0200261
:100ED00000212046D2B2FFF753FF412003F000FB70
:100EE00001212046FFF71CFF002105462046FFF7A1
:100EF000E5FE002100F07F022046FFF741FF681069
:100F000038BD00000000000008B52DED048B08EE90
:100F1000901A09EE102AFFF7BAFF08EE100AB7EE92
:100F2000E86ABBEEE88A9FED325B28EE098A85EE1F
:100F3000067BB7EEC77BDFED3C7AE8EE077A17EE6B
:100F4000900A49F0E5F9DFED397A07EE100ADFED96
:100F5000386A77EE677A87EEA67AB5EEC07AF1EE58
:100F600010FA3FDA88EE286ADFED327A9FED225BD5
:100F700026EE276A9FED227BB7EEC63A66EE066A3A
:100F8000A3EE057BB7EEE64A66EE266A9FED1E5B92
:100F9000B7EEC77BB7EEC77AA4EE057BB7EEE64A9D
:100FA00066EE266A9FED1A5B26EE266AB7EEC77BD1
:100FB000B7EEC77AA4EE457BB7EEE64AB7EEC66A4F
:100FC0009FED155BB7EEC77BB7EEC77AA4EE457B06
:100FD0009FED135BB7EEC77BB7EEC77AA6EE057B36
:100FE000B7EEC77B17EE100ABDEC048B08BD00BF3F
:100FF00088CE19EEAF60C3BEF163CC5D4BC8014033
:10100000000000E0A3406EC0BB82C87D062F653F94
:1010100093C266C7E03DD43ECE563151E2425E3EB9
:101020003EFAE46127F3E43D178393373211803BA6
:101030007F059BB50000C842034B044A1A60012299
:101040001A715A71704700BF642A002440420F0091
:101050007047D0F804310133C0F80431704738B517
:101060000446043013F04AFF054604F1540013F01F
:1010700045FF237840EA4500C4F8FC00E3B9D4F802
:10108000F830032B06D140B9D4F800310133C4F84D
:10109000003102E023B90328F6D0C4F8F80038BDC7
:1010A000022B05D10128F8D1D4F80031013BEEE73D
:1010B000012BF2D10228F6E7012BEED1D4F8F8305B
:1010C00080EA0302032AE8D09842E6D083EA60036C
:1010D000D4F8002113F0010308BF4FF0FF33D31AF7
:1010E000D5E70B6803604B6843608B68836070478B
:1010F00010B4D0E9013401686210E4075DF8044BD4
:1011000001EB020044BF8A58D3581847C3680BB19B
:101110009B6818477047D0F8FC007047D0F8000172
:101120007047D0F80401704710B586B00446684691
:1011300080E80C0006A800E90C00064BE3600346BB
:1011400043F80C1D93E8070084E80700204606B02A
:1011500010BD00BFDC9109082DE9F0470446061DCB
:101160008EB0154604F15407304699469DF85CA0B0
:1011700013F0A2FE2946384613F09EFE04F1A4089F
:101180004946404613F098FE002384F800A03046FC
:10119000C4F80031C4F80431169BC4F8F43013F0DD
:1011A000ADFE0546384613F0A9FE002340EA45008F
:1011B0003E4D214601936B460095C4E93E000CCBA1
:1011C0000AA8FFF7B1FF0AA9304613F09FFE0AA84C
:1011D000FFF79CFF002302952146039302AB0AA868
:1011E0000CCBFFF7A1FF0AA9304613F0ABFE0AA80B
:1011F000FFF78CFFBAF1010F1FD1002304952146A0
:101200000AA8059304AB0CCBFFF78EFF0AA938465A
:1012100013F07CFE0AA8FFF779FF0023069521460C
:10122000079306AB0AA80CCBFFF77EFF0AA9384646
:1012300013F088FE0AA8FFF769FFB9F1FF3F10D04D
:101240001B4B21460AA808930023099308AB0CCB3B
:10125000FFF76AFF0AA9404613F058FE0AA8FFF7F5
:1012600055FF20460EB0BDE8F0870AA8FFF74EFFF5
:10127000404613F0E9FD384613F0E6FD304613F022
:10128000E3FD31F087FC0AA8FFF740FFF0E70AA86A
:10129000FFF73CFFECE70AA8FFF738FFE8E70AA8EA
:1012A000FFF734FFE4E7E3E7E5E7E7E75F1004086B
:1012B0005310040870470000C0E90112044AC260DC
:1012C000002210B502740122024C4274046010BD69
:1012D00000093D006666064010B50446002100790D
:1012E00003F042F92079002103F0BCF9A0680368FB
:1012F000BDE810401B6B184770B50021044600790B
:10130000042603F0AFF9012003F0ECF8A0680368AD
:10131000DD6904F10C0393E80600A8470025A068E6
:1013200000212D0203689B689847013E45EA0005AD
:10133000F5D1A06803681B6A98472079012103F062
:1013400091F9284670BD10B504460121007903F0DB
:101350000BF90121207903F085F9A0680368DB6AA5
:1013600098472046FFF7C8FF6FF07F43984204D1AB
:101370002046FFF7B1FF002010BD0120FCE7000070
:1013800043EC152BDDE90003002282421EDA1946E8
:10139000183313ED047BB4EEC57BF1EE10FA13DDC8
:1013A000086898B1B7EE006B00239FED0B7B984265
:1013B0000EDD0A6902EBC302013392ED004BA4EE8D
:1013C000067B26EE056BF2E70132DEE79FED047B3C
:1013D00051EC170B704700BF000000000000000038
:1013E000000000000000F87F10B543EC132B2DED3A
:1013F000028B0C4682B061B31D4B012918BF00233C
:1014000001930323009353EC132BFFF7B9FF41EC37
:10141000180BC4B9B5EEC03BF1EE10FA13DD9FED29
:101420000E7B33EE473B9FED0E7B23EE033B23EE1B
:10143000077B51EC170B48F0DFF99FED0B7B41EC7C
:10144000160BA6EE078B51EC180B02B0BDEC028B0D
:1014500010BD084BD4E700BFF5B9DA8AFDBD5F4087
:101460004175DFB1E0051FBFB253628D695CBE3FBD
:10147000509209089892090837B514461D4669B17B
:10148000074B01290CBF1946002104232246019174
:1014900000932B46FFF774FF03B030BD0149F4E71A
:1014A000189409087894090838B52DED048B0D4679
:1014B0000446FFF721FF410741D1830C00284FEA82
:1014C000101094ED007AB8BF6FEA83332946B7EE67
:1014D000C77AB8BF6FEA9333020508EE103AC0F33B
:1014E0000B03204648BF6FEA0353BAEECF8A48BFCA
:1014F0006FEA1353B7EEC88A09EE103ABAEECE9AE5
:10150000B7EEC99A39EE477B53EC172BFFF76CFF08
:1015100038EE498B9FED0C7B41EC160B294620469B
:10152000A8EE076B53EC162BFFF7A6FF41EC170B49
:10153000F7EEC77B17EE900ABDEC048B38BDDFEDEC
:10154000047AF7E7AFF30080000000C02022A53F37
:101550000000C07F064B074A1A6007225A60064AFD
:101560009A60064ADA6000221A7401225A7470479F
:101570006C2A002466660640842A002400093D0087
:10158000162908B508DC012A06D802F0010289B242
:1015900000F0ECF9012008BD0020FCE738B5054655
:1015A0000C4600F006FA222806D1A4F10C030B2BFE
:1015B0000BD94FF0FF3038BD284600F0FAF9232848
:1015C000F7D1082CF5D8032CF3D0A1B2284600F0AF
:1015D000A7F9F0E7C1F307220023C9B200F0D2B99E
:1015E00007B501A900F0B2F9019803B05DF804FB5A
:1015F00010B5044600F0DDF922287DD100222046F6
:10160000114600F0C8F920460022012100F0C3F97C
:1016100020460022022100F0BEF9204600220321CC
:1016200000F0B9F920460022072100F0B4F9204665
:101630000022062100F0AFF920460022052100F02B
:10164000AAF920460022042100F0A5F92046002234
:10165000082100F0A0F920460022092100F09BF9A2
:10166000204600220A2100F096F9204600220B2194
:1016700000F091F920460122172100F08CF9204654
:101680000122162100F087F920460122152100F0E1
:1016900082F920460122142100F07DF92046012222
:1016A000132100F078F920460122122100F073F98D
:1016B00020460122112100F06EF92046012210215E
:1016C00000F069F9204601220F2100F064F920465C
:1016D00001220E2100F05FF9204601220D2100F0C9
:1016E0005AF920460C21012200F055F9204600212C
:1016F000BDE81040FFF76EBF20460122082100F030
:101700004AF920460122052100F045F92046012230
:10171000042100F040F920460122022100F03BF9AB
:1017200001222046114600F036F920460122002110
:1017300000F031F920460122072100F02CF9204663
:1017400001220621BDE8104000F025B938B5054654
:1017500000F02DF9284600F0CFF8044610B12846D5
:10176000FFF746FF204638BD014800F0C1B800BF72
:10177000802A002470B51C460E4615460146013CE1
:101780000B4800F0D5FA31462544094E084800F0D0
:10179000E1FAAC4205D014F8011F304600F0DAFA45
:1017A000F7E7034800F0CAFAB0FA80F0400970BDCC
:1017B000D02A002407B502AB03F8012D0122FFF760
:1017C000D9FF03B05DF804FB2DE9F74F17460093EE
:1017D00082468B46BDF83080002502F063FE202F44
:1017E0003B468146A8BF20232C46234E0193BD4291
:1017F00030D25146304600F09BFA5946304600F050
:10180000A9FA304600F09AFA5146304600F090FAB4
:101810007A1B51463046202AA8BF2022D2B200F0BF
:1018200091FA304600F0A5FA80B1B8F1000F07D167
:10183000304600F0A8FA009B1855013464B2F0E776
:1018400002F030FEA0EB09004045F1D3019B1D449E
:10185000EDB2CCE7B8F1000F09D002F023FEA0EB07
:101860000900404503D3BC42B8BF4FF0FF342046C7
:1018700003B0BDE8F08F00BFD02A002407B5009365
:1018800013460122FFF7A0FF03B05DF804FB37B554
:1018900015461C460DF10702BDF81830FFF7EEFFA4
:1018A00001229DF80730AA401A40227003B030BDD3
:1018B000F7B51E460D4B17460DF107021B8804466F
:1018C0000D46FFF7DBFF01229DF80730BA4052B208
:1018D0004EB11A43D2B2294620468DF80720FFF7B1
:1018E00069FF03B0F0BD23EA0202F4E7040000241C
:1018F000222303707047000007B5084A0346002101
:1019000000781288013300920322FFF75DFFC31EA7
:101910005842584103B05DF804FB00BF04000024A6
:10192000094B01F0070213B51B880446C1F3C70138
:1019300000780093631CFFF7AAFF6078003018BF9F
:10194000012002B010BD00BF04000024064B1B881C
:1019500007B50322007800930B468021FFF734FF80
:1019600003B05DF804FB00BF0400002410B4CC08F1
:101970001346007801F007020434E1B25DF8044B2D
:10198000FFF796BF4170842182700322C370431C0D
:101990000078FFF7EFBE10B4CC081346007801F0D2
:1019A00007020C34E1B25DF8044BFFF781BF017010
:1019B00070470078704710B5C36886B001228DF873
:1019C0000F100DF10F01186803680092DC680DF12B
:1019D0001703A0479DF8170006B010BDF8B5427A6E
:1019E000044603680E46CFB29B680D0A62B93946B9
:1019F0009847236860F3070629469B682046984766
:101A000060F30F26B0B2F8BD29469847236860F30B
:101A10000F2639469B682046984760F30706F1E792
:101A2000C36813B5186803680092DC680B46A047CA
:101A300002B010BD704770477047C36810B50446C8
:101A400053B1186840B103685B6898470421E068A7
:101A500018F060FC0023E36010BD10B504461821A7
:101A600018F058FC204610BD436873B599426D4686
:101A700004460E4685E8060004D1BDF8042003891B
:101A80009A420FD0E36808219DF80420186813F0EB
:101A900022FDE3683146186813F03BFD0098AB88DF
:101AA0006060238102B070BD73B5C568044625B976
:101AB000042018F0FBFBE0600560E3681B6883B955
:101AC0004FF0FF36742018F0F1FBB4F91430B4F97C
:101AD00010200546B4F91210009613F0FBFDE368E0
:101AE0001D6002B070BD7421284618F013FC31F05F
:101AF00051F8000038B50A2002F0BAFC054608206B
:101B000002F0B6FC0446092002F0B2FC094B0A4A76
:101B10000121988218461A60002259725A601A727E
:101B2000DA601D825C82054A0549BDE8384018F03C
:101B300065B900BF842A0024E89509080000002444
:101B4000391A0408002070470268322313B5009345
:101B5000946A40F21342A04702B010BD13B5046866
:101B600000931346A46A40F21342A04702B010BD8E
:101B700013B5322304680093A46AA04702B010BDD5
:101B8000006903681B691847006903689B69184767
:101B9000006903685B69184700690368DB681847D8
:101BA0000120704770B504460D4616460499C5627B
:101BB0002286026A002A08BF1A46436A002B18BF11
:101BC0001946026241628069002807DB0121C0B228
:101BD00002F0CAFC0021207E02F044FDE0690028EA
:101BE00007DB0121C0B202F0BFFC0121207F02F01F
:101BF00039FD002320693246294684F828300368DD
:101C0000BDE870401B6A184710B5044600690368B8
:101C10005B6A9847A069002807DB0021C0B202F088
:101C200021FD0021207E02F09FFCE069002809DBF5
:101C30000021C0B202F016FD207F0021BDE8104057
:101C400002F092BC10BD034690F8280018B1186944
:101C500003681B68184701225A60704770B5002559
:101C60004FF47A768361049B456280F82850C0E97E
:101C70000156034EC0E904120660C0E9073570BD85
:101C80002496090810B504468069002807DBC0B215
:101C9000012102F0E7FC206A08B102F023FC0123D5
:101CA00084F8283010BD10B5044600690368DB686D
:101CB0009847A369002B07DB606A08B102F012FCA9
:101CC0000021207E02F0CEFC002384F8283010BDD5
:101CD000C069002803DB0021C0B202F0C3BC70471A
:101CE000C069002803DB0121C0B202F0BBBC704711
:101CF0000A4B00224FF47A7101205A6283F828209F
:101D0000C3E9012106491960064919611521C3E992
:101D100005011421C3E90712704700BF9C2A002463
:101D200024960908003700240368C9B21B681847C5
:101D300049000023C161C0F82C32704703680121BB
:101D40001B6B184710B403689C6B0123A4465DF815
:101D5000044B6047D0F82C32B3F5807F1FBF5A1C6C
:101D6000C0F82C22C01880F82C1114BF01200020CC
:101D70007047D0F8280170477047C0F8301270479C
:101D8000C0F834127047D0F82831A3B1D0F8283108
:101D90008BB1D0F82431D0F824210344013293F8D8
:101DA0002030D2B2C0F82421D0F82821013AC0F85E
:101DB0002821184670474FF0FF307047D0F828317F
:101DC0002BB1D0F82431184490F8200070474FF020
:101DD000FF307047044B10B50446036000F50E70E9
:101DE00018F0F8FE204610BD7896090838B503684B
:101DF00004465B6A98474FF4827018F057FAB4F9BA
:101E00001A20B4F91810054612F0B0FF656138BD0C
:101E10004FF48271284618F07DFA30F0BBFE38B5D9
:101E2000D0F82C321446054600F596701A44184432
:101E3000B2F5807F88BFC3F5807422464EF04AFC1D
:101E4000D5F82C3220462344C5F82C3238BD38B59D
:101E5000044640690D4608B112F0A5FE206920B184
:101E60002946BDE8384012F0D7BF38BD07B581F02C
:101E7000010100F596720091D0F82C32C1694069D9
:101E800012F0A4FE002814BF0220002003B05DF869
:101E900004FB38B50446406910B10368DB68984715
:101EA00023696BB104F50E75284618F071FE2846BB
:101EB00018F01AFF2069A421BDE8384018F02ABAAA
:101EC00038BD70B5C2B083F001030446154602AEBA
:101ED0000093490013464069324612F098FEC8B993
:101EE000A84218D0D4F82831B3F5807F10D0D4F8A8
:101EF0002031325C234483F82020D4F82031013390
:101F0000DBB2C4F82031D4F828310133C4F82831C9
:101F10000130E5E70025284642B070BD10B4D0E995
:101F2000013401686210E4075DF8044B01EB020024
:101F300044BF8A58D358184730B50446BDB0002571
:101F4000206912F072FF0328FAD8DFE800F04C0293
:101F50001414D4F8343203B19847D4F82C2232B197
:101F600004F59671206912F064FFC4F82C522069C0
:101F700012F067FFE4E7C4F82051F022C4F82451BE
:101F80006946C4F82851206912F051FF00228242AC
:101F90001DDAD4F82831B3F5807F18D0D4F8283171
:101FA000B3F5807F11D0D4F820311DF802102344FE
:101FB00083F82010D4F820310133DBB2C4F820318B
:101FC000D4F828310133C4F828310132DFE7D4F8DE
:101FD0002831002BB4DDD4F83032002BB0D0D4F847
:101FE00028019847ACE702F08DFAA9E77FB50368AE
:101FF00004460E465B6A9847A42018F057F9B4F9D6
:102000001A20B4F91810054612F0ECFE71002846AB
:10201000256112F003FF0D4B694604F50E70039322
:102020000B4B009401930023029318F043FD684684
:10203000FFF76CF804B070BDA421284618F06AF9C7
:1020400030F0A8FD6846FFF761F8F9E758960908EF
:10205000391F04082DE9F7430F4699460021144B18
:1020600000F140050446036090460161284618F0DF
:1020700031FC04F15406304618F0CCFB0A9B424672
:102080003946204600934B4618F008FD0CE03046D8
:1020900018F0FEFB284618F062FC201DFFF736F80A
:1020A00030F078FDF6E7F8E7204603B0BDE8F083AE
:1020B00098C2090837B54FF47A73002504460183A6
:1020C000428329464FF48072C0E901530F4BC0E9A7
:1020D0000455036020304EF0FBFB0D4BC4F820513B
:1020E0004FF40062C4F824511821009304F50E70D7
:1020F000C4F828512B46C4F82C52C4F83052C4F806
:102100003452FFF7A7FF204603B030BD7896090888
:102110006496090870B50B20154E02F0A9F9044623
:102120000C20144D02F0A4F921460246124C304610
:10213000FFF7C0FF3046114E2A46214617F05EFEDB
:10214000162217213046FFF7B5FF30460C4E2A46BF
:10215000214617F053FE7B227C213046FFF7AAFF71
:102160002A4621463046BDE8704017F047BE00BF02
:10217000D02A002400000024D51D0408C42D00240A
:10218000B8300024002070470020704700207047BE
:1021900000207047002070477047036853F8683C80
:1021A000184470477047036853F8743C18447047EC
:1021B000D0F8100118B1036853F8843C18447047F4
:1021C00038B504460D46A1B9136823609DB952681D
:1021D00053F8843CE250D4F880301BB19B6804F182
:1021E00074009847AB0702D5204610F0EBFB204661
:1021F00038BD024BE9E7014A0023EBE760AC090870
:102200000A460021FFF7DCBF00220221FFF7D8BFFA
:10221000D0F800C0ACF1240CDCF800C06044F3E757
:1022200010B50446FFF7F0FF8421204618F072F83D
:10223000204610BDD0F800C0ACF1240CDCF800C082
:102240006044EDE738B50D460431044610F001F85E
:10225000EB682046C4F8843053F8843C2A69234450
:10226000C3F884202B68236053F8843C6A69E250E9
:10227000AB69C4F8843038BD0B4B10B5036013460E
:102280000A460A4904460FF0E4FF04E0204610F035
:1022900099FB30F07FFC064B2046236003F58073EA
:1022A000C4F8843010BD00BFA0AD0908D499090856
:1022B000709A090810B50446006808B118F074F85F
:1022C000204610BD0B4B10B5044640F8643BFFF7A9
:1022D000F1FF04F14C00FFF7EDFF04F13400FFF7CC
:1022E000E9FF04F11C00FFF7E5FF201DFFF7E2FF07
:1022F000204610BDD09609082DE9F0410022054680
:102300001C4B0446114645F8043B284610F0DDFD01
:1023100004F11C0600223046114610F0D6FD04F1EF
:10232000340700223846114610F0CFFD04F14C0866
:1023300000224046114610F0C8FD002204F164005E
:10234000114610F0C2FD10E04046FFF7B3FF3846DB
:10235000FFF7B0FF3046FFF7ADFF2846FFF7AAFFB3
:1023600030F018FCF3E7F5E7F7E700232046E367D2
:10237000BDE8F081D096090870B504460D4609BB4A
:102380001368236005BB516953F8843CE150F5B9EB
:102390009169234643F8841FDDB902F10C010868F6
:1023A000C4F884004E6850F8841C5E509DB9111D1D
:1023B0002046FFF725FFAB0702D5204610F002FBB1
:1023C000204670BD054BDCE704490023DEE70449E5
:1023D000DFE70449E3E70449EAE700BF709A090828
:1023E000709B0908DC990908D49909080022022188
:1023F000FFF7C2BFA0F18400F8E7D0F800C0ACF14D
:10240000240CDCF800C06044F0E70000054B10B578
:10241000044640F8883BFFF7E9FF2046FFF752FFEC
:10242000204610BDF49B090810B50446FFF7DEFFF7
:102430008821204617F06EFF204610BDA0F18400D1
:10244000F2E7D0F800C0ACF1240CDCF800C0604426
:10245000EAE70A460021FFF78FBF000038B5124CAB
:102460002046FFF749FF114B2360002384F8843096
:1024700005F0E4FA05460FF07AFC0246294604F11D
:102480008800FFF7F9FE04F18800094A0949C4F8F9
:1024900010012046BDE8384017F0B0BC0248FFF7F5
:1024A00011FF30F077FB00BFAC330024F49B090828
:1024B000000000240D240408CB68C3600BB15B68E6
:1024C00018477047002070470020704730B5A1F1D1
:1024D0001004002500F00F02CD7302390009D3B2B9
:1024E000092ACCBF373330330B748C42F2D130BD64
:1024F0002DE9FF470024061D05468A469046994669
:10250000009423464FF0FF32B1213046CDE901441B
:1025100012F001FF29682846DDE90C23CDE90023EC
:1025200042464F694B465146B847009423464FF008
:10253000FF32C1213046CDE9014412F0ECFE2046C5
:1025400004B0BDE8F0872DE9D04F9B460368924662
:1025500004469B6ADDE90889984702460B465046C7
:10256000594630F0C7FF134302D00020BDE8D08F9A
:10257000236820469B6A984702460B4640464946D8
:1025800030F0B8FF1343F0D11AEB08062368204659
:102590004BEB09079B6B9847B94208BFB0422CBF71
:1025A00001200020E2E701682DE9F04114461D46B4
:1025B000096B0646884702460B462046294630F0FE
:1025C00099FF134302D00020BDE8F081DDE9062326
:1025D0003046A71845EB030817F1FF323368196B33
:1025E00048F1FF33884702460B463846414630F0F3
:1025F00081FF1343E7D1336830469B6B98474145D1
:1026000008BFB8422CBF01200020DDE72DE9D04FE4
:102610009B460368924604465B6ADDE90889984751
:1026200002460B465046594630F064FF134302D031
:102630000020BDE8D08F236820465B6A9847024699
:102640000B464046494630F055FF1343F0D11AEB94
:102650000806236820464BEB09079B6B9847B94255
:1026600008BFB0422CBF01200020E2E7074B10B5A5
:1026700004460360806A08B116F0E2F8236913B1DA
:102680009B68201D9847204610BD00BF7CAF0908FD
:1026900010B50446FFF7EAFF4FF48271204617F0A9
:1026A00039FE204610BDC220704700B5C5B01622C5
:1026B000172103A812F05AFB4FF4A17302AA1021AC
:1026C000ADF80830002303A80093022312F07EFA2D
:1026D00003A8FFF7CBFF45B05DF804FB03A8FFF7A5
:1026E000C5FF30F057FA000037B51F481F4D03787B
:1026F000BFF35B8F13F0010F0DD117F097FB50B1B3
:102700001A2017F0D3FD1A2200214EF0E1F82860BC
:10271000154817F0ADFB164819F024FE1A220023C5
:1027200029681348CDE9002300230022FFF7E0FECB
:10273000044628680378B52B0CD10E4B0122186093
:102740000D4B1A700A4819F0F1FCB4FA84F04009F4
:1027500003B030BD1A2117F0DDFDF3E7024817F092
:102760008DFD30F017FA00BFE8340024FC36002459
:10277000F034002408000024F8360024014B1868C7
:10278000704700BF080000240D4B187830B10D4B86
:102790001B689A8840F202439A420FD80A4B9B6DFD
:1027A00003F46043B3F5004F07D0064B1B6858781D
:1027B000172894BF0020012070470020704700BFF9
:1027C000F836002408000024004402581D4B012163
:1027D0001D4AA62070B51A6001F00AFF0121A6204B
:1027E00001F086FFFFF761FF184B43F2D2021A6037
:1027F000FFF77AFF164B1B7833B1164B1B689A888C
:1028000040F209439A421BD8134B9B6D03F460437B
:10281000B3F5004F14D001F045FE104D044601F011
:1028200053FE064601F050FE801BA842FAD901F083
:1028300039FE001B642803D0BDE870402DF000B8BD
:1028400070BD00BFC4340024004000580040005256
:10285000F836002408000024004402589F86010036
:1028600010B5044620F0EAFE2146FFF72FFE20F0C7
:10287000EBFE04F11001FFF729FE20F0EBFE04F15E
:102880002001FFF723FE302010BD000008B54DF6F3
:1028900059720021074827F0F6FFBFF34F8F064912
:1028A000064BCA6802F4E0621343CB60BFF34F8F5C
:1028B00000BFFDE7C434002400ED00E00400FA0589
:1028C00010B5002386B00D4A66210D4CCDE90332C8
:1028D0005A233C222046CDE901313D233B21009380
:1028E000572319F08DFB074B074A20460749236001
:1028F00006B0BDE8104017F081BA00BF005A62026E
:10290000F0340024009C0908000000244D2904082C
:1029100038B5074B0546044645F8BC3B19F006FCA4
:10292000284617F0B5FF201D12F034FD204638BDB3
:10293000B8CE090810B50446FFF7EAFF4FF402715C
:10294000204617F0E7FC204610BD0000034B10B5F1
:1029500004460360FFF7DCFF204610BD009C090819
:1029600010B50446FFF7F2FF4FF40271204617F04E
:10297000D1FC204610BDD0E90030184710B5C0E9A1
:102980000012024C0022C460826010BD509C0908F5
:1029900070B590F8383105461446F3B90368DB6921
:1029A000984704F4706304F00F02B3F5407F04F01D
:1029B000F0030CBF07210821302B0CBF0223012399
:1029C000012A08D0901E42424241A869BDE87040E9
:1029D000006812F0E2BF0222F7E770BD10B590F870
:1029E000383104462BB9A369186813F017F800288A
:1029F000F9D010BD38B590F838510446A5B98369AF
:102A00005BB1186848B10368DB689847A369042183
:102A10001D60A06917F07EFCA5610023C4F8283171
:102A2000C4F82C31C4F8303138BD13B590F83831C2
:102A300004466BBBA369186812F0C6FF40B316F0DA
:102A400001FDA36901220DF10701186803685B69A4
:102A50009847D4F83031B3F5807F16D0D4F83031B0
:102A6000B3F5807F11D0D4F828319DF80720234496
:102A700083F82820D4F828310133DBB2C4F8283198
:102A8000D4F830310133C4F8303116F0F1FCD1E71D
:102A900002B010BD10B4D0E9013401686210E4073F
:102AA0005DF8044B01EB020044BF8A58D358184725
:102AB00008B590F838313BB1012001F011FD06480E
:102AC000BDE8084001F01ABB82691AB113680033EF
:102AD00018BF0123184608BD844100247FB590F833
:102AE000383104460E46002B36D1856925B90420BD
:102AF00017F0DCFBA0610560A369186828BB8C2077
:102B000017F0D4FB3346B4F922200546B4F920105F
:102B100013F018FAA3691D60B4F92420531C06D0E1
:102B2000A0690321B4F92630006813F019FAA369EB
:102B3000186888B10E4B00226946009403930D4B30
:102B40000292019312F087FF03E0314612F012FF68
:102B5000E2E76846FEF7DAFA04B070BD8C21284639
:102B600017F0D8FB30F016F86846FEF7CFFAF9E711
:102B70005C9C09082B2A040870B504460D4601F038
:102B8000BDFA30B12368294620461B6CBDE8704071
:102B9000184770BDA0F59860EEE7000013B590F8F7
:102BA000383104468DF807102BB1C9B20B48FFF736
:102BB000E3FF02B010BDA369186812F02FFF0028D0
:102BC000F9D0A36901220DF10701186803681B6998
:102BD0009847013018BF0120EBE700BF8441002473
:102BE0002DE9F04107468846164601F087FA80B184
:102BF0000024A6420ED9351B08EB04013846B5F572
:102C0000007F28BF4FF400752A462C4400F018FFBF
:102C1000EFE704462046BDE8F081A0F59860DFE7C5
:102C200070B590F8383105460E4614462BB10F4862
:102C3000FFF7D6FF0446204670BDAB69186812F056
:102C4000EDFE0028F9D0AB6901211868D0F8883072
:102C500088301B6B9847AB69224631461868036879
:102C60001B699847013008BF0024E4E78441002431
:102C700030B50446C3B001F099F90546D4F8D8350B
:102C8000C3F58073984203DDD4F8D855C5F5807537
:102C90002A4601AB02A9204600F0C9FF019902AB08
:102CA00000226D1A1D44D4F8D835B3F5807F19D0B1
:102CB0008A4217D0D4F8D835B3F5807F10D0D4F835
:102CC000D035A85C234483F8D004D4F8D035013340
:102CD000DBB2C4F8D035D4F8D8350133C4F8D835D0
:102CE0000132E0E743B030BD38B5044600F026FBC2
:102CF0002046FFF7BDFFD4F8D855204600F026FB4C
:102D0000284638BDA0F59860EEE7000010B590F8B1
:102D1000383104462BB10648FFF7E6FF044620464B
:102D200010BD16F08FFBD4F8304116F0A1FBF6E78A
:102D30008441002438B5044600F000FB2046FFF72C
:102D400097FFD4F8D8354BB1D4F8D435234493F851
:102D5000D054204600F0FAFA284638BD4FF0FF352F
:102D6000F7E7A0F59860E5E710B590F8383104462C
:102D70002BB10B48FFF7DEFF0446204610BD16F0CE
:102D800061FBD4F830313BB1D4F82C01044494F801
:102D9000284016F06DFBF0E74FF0FF34F9E700BF75
:102DA0008441002438B5044600F0C8FA2046FFF7F5
:102DB0005FFFD4F8D835A3B1D4F8D435234493F8C1
:102DC000D054D4F8D4350133DBB2C4F8D435D4F8B8
:102DD000D835013BC4F8D835204600F0B7FA28466C
:102DE00038BD4FF0FF35F7E7A0F59860DAE700004F
:102DF00010B590F8383104462BB11148FFF7D2FFD7
:102E00000446204610BD16F01DFBD4F830319BB1AE
:102E1000D4F82C31234493F82800D4F82C31013312
:102E2000DBB2C4F82C31D4F83031013BC4F8303176
:102E3000044616F01DFBE4E74FF0FF34F9E700BF4E
:102E40008441002408B54FF4807200214DF040FD0C
:102E50000022C0F80021C0F80421C0F8082108BDF4
:102E60002DE9F84300242D4D4FF47A782C4F20267D
:102E700005F128002F60EC61C5E90148C5E905644A
:102E8000FFF7E0FF01230E2085F8383101F0F0FA5A
:102E9000244D81460D2001F0EBFAA5F820904FF665
:102EA000FF79688405F128002F60EC61A5F8249073
:102EB000A5F82690C5E90148C5E90564FFF7C2FFFA
:102EC00085F838410F23184D2B84562305F128002F
:102ED0002F606B845823EC61AB845923C5E901480A
:102EE000EB84C5E90564FFF7ADFF85F83841982309
:102EF0000E4D2B84992305F128002F60EC616B8423
:102F0000A5F82490A5F82690C5E90148C5E905640F
:102F1000FFF798FF85F83841BDE8F883B43A0024FC
:102F2000709C0908003700243C38002478390024BC
:102F3000002070477047704710B5D0F88C452CB111
:102F4000236820465B689847A468F8E710BD38B549
:102F50000D46D0F88C4534B12368204629469B683D
:102F60009847A468F7E738BD00487047309D0908C6
:102F7000054B10B50446036014F007FB204614F01F
:102F80001DFB204610BD00BFB09C090810B50446CB
:102F9000FFF7EEFF4FF4B261204617F0BBF9204671
:102FA00010BDF7B5002305460E46D0F88C45A4B1F8
:102FB000236831460DF103022046DF6801ABB847B4
:102FC0009DF803100346042905D0019A284613F002
:102FD00041FD03B0F0BDA468E9E7019A9DF8031034
:102FE000F4E770B505460E4622B10021BDE87040F9
:102FF00013F032BBD0F88C455CB123680022314617
:1030000020461B69984710B101212846EEE7A468C5
:10301000F2E72146F9E770B50E460546D0F88C4533
:1030200000213CB12368314620465B699847A4687B
:103030000146F6E72846BDE8704013F007BCF8B536
:1030400005460E461746D0F88C453CB1236820460D
:103050003A4631469B699847A468F6E7284601211D
:10306000BDE8F84013F050BC70B5002186B00446AE
:1030700013F0E8FE00234FF48975A188EF26ADF820
:1030800006302389ADF8045002258DF810301B0A54
:10309000E2888DF8113040F201238DF80750ADF829
:1030A000123040F203138DF809500125ADF81430A9
:1030B00004F10A038DF8086005AE8DF80A501C462D
:1030C0008DF80C1001AD090A8DF80E20120A8DF84A
:1030D0000B008DF80D108DF80F202A46083303CA17
:1030E000B24243F8080C43F8041C1546F5D1128887
:1030F00020461A8006B070BDF8B5002406460D467D
:10310000274630464EF07CF9A04207D9335D05F8DA
:10311000143005EB440301345F70F2E7400000F027
:10312000FE00F8BD38B50446D0F88C5535B12B6893
:1031300028461B6A984710B9AD68F7E7284640F261
:10314000023304F24A51A4F84835FFF7D5FF94F84A
:103150004835184484F8480504F5A96038BD0000D6
:1031600040F2023300F20A5110B50446A0F80835C7
:103170000548FFF7C1FF94F80835184484F808059E
:1031800004F5A16010BD00BF9C9C090840F2023309
:1031900010B50446A0F8C83400F2CA40FFF760FB3F
:1031A00094F8C834184484F8C80404F5996010BD34
:1031B0002DE9FF4100231D4A044600F54E788DF8A5
:1031C0000A30092590F888350192FA228DF80830E6
:1031D00001238DF80C208DF80930C0238DF80B30B9
:1031E00001AB03CBC4F83803C8F8041088F80820F2
:1031F000D4F88C658EB13368002130461B6898473F
:10320000478805F54E7300F10901093FE0183A4679
:103210003D444DF05FFAB668ECE784F83A53404617
:103220002D1284F83B5304B0BDE8F0810902FFFF82
:1032300073B504460D4616462AF00CFD4FF4807314
:1032400001462A4620460093334613F0C3FD024B45
:103250002046236002B070BDB09C090810B5D0F8BC
:103260008C350446A3B9C0F88C1594F88835084607
:103270004A790B7194F88835134484F888350B68C3
:103280005B6A9847238918442081012010BD1346AA
:103290009A68002AFBD19960E7E71FB5044613F04E
:1032A00093FD0146684612F01DFF4021684612F06A
:1032B00095FFD4F88C4534B1236869462046DB6914
:1032C0009847A468F7E7684612F013FF04B010BDF2
:1032D000684612F00EFF2FF05DFC10B50446FFF7B4
:1032E000DCFF2046BDE8104013F0DEBC0F4808B5F7
:1032F0000378BFF35B8FDB0711D416F097FD70B135
:1033000040F25B2242F241310948FFF791FF074842
:1033100016F0AEFD074A0849054816F06FFD04484F
:1033200008BD024816F0AAFF2FF034FCF03B002441
:10333000F43B002400000024712F040810B5FFF7AF
:10334000D5FF0368BDE810405B6F184710B5FFF765
:10335000CDFF0368BDE810409B6F184710B5FFF71D
:10336000C5FF0368BDE81040DB6F184713F076B85F
:1033700013F034B813F062B8704770477047436A6F
:1033800093F878007047D0F8A40470470120704784
:1033900000487047A09E09082DE9F04794B0044604
:1033A0000F464B22002101A84DF092FA2679D4F85D
:1033B000A434751C94F80E90002B94F80C80EDB298
:1033C00094F80DE014BF05200020002F40F09380FA
:1033D00040F2092309218DF81D0042F20540ADF8A5
:1033E00004304FF481738DF815100121ADF80830C9
:1033F0008023ADF81E0010208DF80B3032234FF0E3
:10340000040A24278DF80C3008234FF0030C4B22BC
:103410008DF80D300B238DF819101D348DF80E30FA
:1034200040F202238DF81C10ADF8103002238DF805
:10343000210005208DF822108DF825108DF8271019
:1034400006218DF806208DF80F608DF812308DF86A
:1034500017608DF81A308DF81B308DF823008DF829
:1034600026C08DF82A308DF82B108DF82C008DF8A1
:1034700016A08DF824708DF828A08DF829708DF88D
:103480002D708DF82E1007218DF82F6041F2020665
:103490008DF831108DF8411040F207518DF8305001
:1034A000ADF8366040F209468DF83A5040F60225F4
:1034B0008DF832008DF842002046ADF848100DEB33
:1034C0000A018DF833908DF834C0ADF83860ADF84E
:1034D0003C508DF843808DF844308DF846308DF89F
:1034E0004AE08DF84B308DF84D304DF0F3F8204622
:1034F00014B0BDE8F0870020FAE700000A4B10B5D1
:1035000004460360FFF7F2FE14F03FF804F5247060
:1035100012F0FEFE04F17C0012F0FAFE04F17000DD
:1035200012F0F6FE204610BD609E090810B5044654
:10353000FFF7E4FF4FF49561204616F0EBFE2046BE
:1035400010BDFFF70BBF0000034B10B5044603602E
:1035500012F04EFD204610BD789D090810B50446B6
:10356000FFF7F2FF2821204616F0D4FE204610BDBA
:10357000034B10B50446036012F03AFD204610BD1F
:10358000489D090810B50446FFF7F2FF3421204694
:1035900016F0C0FE204610BD034B10B50446036074
:1035A00012F026FD204610BD609D090810B50446A6
:1035B000FFF7F2FF3821204616F0ACFE204610BD82
:1035C00038B51E4B0D4604464FF400721968C0F81A
:1035D0000F1099889B79A0F8131002214375284693
:1035E00012F0F2FD4FF4007220730221284612F00F
:1035F000F0FD4FF4007260730321284612F0E4FDE1
:10360000A073284612F076FD20B9AF220C490D4870
:1036100015F02CFE04F185020023C4F8882204F280
:10362000992284F8783084F88430C4F88C3284F895
:103630009832C4F89C24C4F8A03438BD949D09087D
:10364000399E0908449E09082DE9F34104460E46B7
:103650001546FFF783FEF28823799A4237D1002D71
:1036600035D17778012F2ED1F378202B27D13289CD
:10367000072A24D104F10F0804F116054046294613
:103680004CF0F6FFD0B1D4F81630C4F80F30638B8D
:10369000207CE17BA4F8133001EB0021E57C607C09
:1036A000237F01EB00410095A07C2568637501EB49
:1036B0000061237D2046627D6D6BA8473D46F3780F
:1036C000212B08BF0125284602B0BDE8F081002566
:1036D000F9E710B50446FFF741FEFFF707FE217B2F
:1036E00013F0F8FD04F1850304F17C00C4F888327E
:1036F0000023C4F88C3284F8843012F0BEFD94F8B4
:1037000084302BB923682046DB6BBDE81040184796
:1037100010BD000070B50446FFF720FED4F8A05499
:103720002DB140F2DD120F490F4815F09FFD04F254
:103730009923C4F89C34FFF7D9FD617B13F026FD73
:1037400084F89852C4F8A00404F5247012F095FD92
:1037500094F898322BB9236820469B6BBDE87040E3
:10376000184770BD399E0908A09D090810B4D0E91A
:10377000013401686210E4075DF8044B01EB0200BC
:1037800044BF8A58D358184770B586B00546FFF72E
:10379000E5FD02ACFFF7AAFD0023A97B00944FF4DE
:1037A00000720593032313F099FA2046214EFDF78A
:1037B000ADFCFFF79BFD204A297B022303920022E8
:1037C000009404924FF400720596029513F086FA65
:1037D0002046FDF79BFCFFF789FD184B697B4FF4F2
:1037E000007203930023009404930223059602952C
:1037F00013F074FA0CE02046FDF788FC2FF0CAF9AC
:103800002046FDF783FCF9E72046FDF77FFCF5E74E
:103810002046FDF77BFCFFF769FD4FF40073D5F8F8
:103820009C24697B13F052FC012085F8980206B0B5
:1038300070BD00BF889D0908D336040815370408F9
:1038400002232DE9F04143710023044605468360BD
:103850009046144B04F17C0645F8703B284612F064
:10386000FFFC304612F0FCFC04F52477384612F0D9
:10387000F7FCC4F8A484FFF739FD2146FFF7EEFCFE
:103880000CE0384612F044FD304612F041FD284667
:1038900012F03EFD2FF07EF9F6E7F8E72046BDE88E
:1038A000F08100BF609E090870B504460D46FFF721
:1038B00055FD84F87850002D3ED194F8843033B112
:1038C000FFF714FD217B13F0D9FA84F8845004F13A
:1038D000850304F17C0600253046C4F88832C4F81C
:1038E0008C5212F0CAFC304612F0C0FC28B94FF4DA
:1038F000A2721449144815F0B9FC94F8983233B107
:10390000FFF7F4FC217B13F0B9FA84F8985204F223
:10391000992304F52475C4F89C3400232846C4F880
:10392000A03412F0AAFC284612F0A0FC20B94FF4F3
:10393000A77204490548DEE704F17000BDE8704055
:1039400012F09BBC399E0908AE9D0908BF9D09086D
:1039500010B50446FFF702FD00212046BDE81040E7
:10396000FFF7A2BF38B50D460446FFF7F7FC042D5C
:1039700005D020460021BDE83840FFF795BF38BD8F
:10398000F8B5164604460D461F46FFF7E7FC04232C
:10399000EA88337023799A4225D16978012922D1A6
:1039A000EA78212A08D0222A0BD0202A4FF00000E2
:1039B0001BD13070163401E00F34317007203C60A9
:1039C000F8BDAB88204613F0010308BF1946FFF786
:1039D0006BFFAB8803F00103E366AB8803F00203DF
:1039E000A366022333700020EAE703233370E7E77E
:1039F00010B58AB00446FFF7A1FC684612F0ECFA55
:103A00000D4B694604F170000093099412F04DFCCF
:103A10002046FFF79BFC094B002168461A6812F00C
:103A200027FB6846FFF790FD0AB010BD6846FFF718
:103A30008BFD2FF0AFF800BF789D09089C9D090809
:103A400070B58EB004460E461546FFF777FC01A808
:103A500012F0C2FA114B01A904F17C00019300237A
:103A60000C958DF83430CDE90A4612F01EFC204644
:103A7000FFF76CFC0A4B002101A81A6812F0F8FA53
:103A800004E001A8FFF774FD2FF084F89DF834409E
:103A900001A8FFF76DFD20460EB070BD489D0908D6
:103AA0009C9D090810B50446FFF758FC94F8843033
:103AB0007BB9D4F88C3263B1FFF718FCD4F88C32A0
:103AC00004F18502217B13F0A1FB10B1012384F8DE
:103AD000843010BD2DE9F8431E46044689469046C1
:103AE0009DF82070FFF72AFC0023336094F87830AB
:103AF000E3B194F88430CBB9D4F88C52C5F5007595
:103B0000454528BF4546B8F1000F05D02A4649462D
:103B1000D4F888024CF0DEFDD4F88C322B44C4F883
:103B20008C32356017B12046FFF7BCFF2046BDE858
:103B3000F843FFF70BBCF0B50446406A85B0012698
:103B400090F878502DB984F830503546284605B0A5
:103B5000F0BD04AB0027D4E90A1243F8047D0096B7
:103B6000FFF7B8FF0399E36AA26A5B1A0A44E362AB
:103B7000A26213B984F83060E8E7606A3D46FFF757
:103B800091FFE3E72DE9F0431C4691B005468946D5
:103B90009046FFF7D3FB002C4FF0000602A806BFAB
:103BA00001AC01270027266012F016FA134B02A978
:103BB00005F5247002938DF83C708DF83D60CDE9D9
:103BC0000B59CDE90D8412F070FB2846FFF7BEFBC0
:103BD0000B4B314602A81A6812F04AFA04E002A818
:103BE000FFF7DAFC2EF0D6FF9DF83D4002A8FFF764
:103BF000D3FC204611B0BDE8F08300BF609D0908EA
:103C00009C9D090810B5D0F8A034044673B990F80B
:103C100098325BB9FFF76AFB4FF4007304F2992204
:103C2000617B13F053FA012384F8983210BD70B50C
:103C300004461E4600230846336094F87830EBB102
:103C400094F89832D3B9D4F8A054D4F89C1495427F
:103C500028BF15462A464CF03DFD3560D4F89C340B
:103C6000D4F8A0242B44551BC4F89C34C4F8A054A9
:103C700025B92046BDE87040FFF7C4BF70BD37B519
:103C80000446406A90F878502DB984F835500125E3
:103C9000284603B030BD02AB002243F8042DD4E91E
:103CA0000A12FFF7C4FF0199A26A0A44A262226BBA
:103CB00013680B4413600199E36A5B1A94F834109B
:103CC000E36209B9126802B91BB9012384F83530DF
:103CD000DEE7606A0025FFF795FFD9E76FF0150072
:103CE000704700290CBF6FF01800002070470120BA
:103CF00070476FF0150070476FF015007047112086
:103D0000704770477047704703689B6C1847A0F571
:103D10009860F9E770477047704770470368184725
:103D200010B50446012000F0DBFB94F8780010BDCC
:103D3000A0F59860F4E7000038B54FF0FF3201239A
:103D4000FF210B4816F025FD0A4D00F0ABFB0446A1
:103D500095F878301BB1012000F0C2FBF8E700F0C5
:103D6000A1FB001BC728F6D9BDE83840FEF78EBD81
:103D7000BC4700248441002407B502AB012243F86C
:103D8000041D1946FFF75CFE18B1019803B05DF8F9
:103D900004FB4FF0FF30F9E7A0F59560FFF7ECBFAB
:103DA00007B5002302A9012201F8013DFFF7EAFE51
:103DB00020B19DF8070003B05DF804FB4FF0FF3021
:103DC000F9E7A0F59560FFF7EBBF2DE9F84304464E
:103DD000884617461E46089DFFF7C0FAD4F8F095AE
:103DE000B9F1000F04D02B46324639464046C84749
:103DF000C4F8E085C4F8E475C4F8E865C4F8EC5587
:103E0000BDE8F88370B506460025FFF7A7FA06F26D
:103E1000F454D6F83436AB4208D92046103454F85E
:103E2000043C1BB11B6801359847F2E770BD0000E8
:103E3000B0F5966F03D10121014816F089BC704797
:103E4000BC47002410B4D0E9013401686210E407D3
:103E50005DF8044B01EB020044BF8A58D358184761
:103E6000114B03F1780270B503600446C0F8A82432
:103E700000F2F45603F1D80200F23465E833C0F8DA
:103E8000AC24C0F8C034AE4204D0103D2846FDF743
:103E90003DF9F8E704F5956014F05AFE2046FFF767
:103EA0002DFB204670BD00BFE09E0908A0F595607F
:103EB000FFF7D6BFA0F2AC40FFF7D2BF10B5044663
:103EC000FFF7CEFF4FF4C761204616F023FA2046D5
:103ED00010BDA0F2AC40FFF7F1BFA0F59560FFF771
:103EE000EDBF0000F7B51E4604460F46154629F003
:103EF000B1FEBDF8243001462A4601932046BDF8A4
:103F000020300093334604F59566FFF799FC0021B5
:103F1000304614F0F3FD4FF47A73002504F59A60EF
:103F2000C4F8C8342946204BC4F8C45403F17802BD
:103F30002360C4F8A82403F1D802E833C4F8AC2401
:103F40004FF48072C4F8C0344CF0C2FCC4F8D055B1
:103F5000C4F80056C4F8D455C4F81056C4F8D8555F
:103F6000C4F82056C4F83056C4F83456C4F8F05596
:103F7000BFB12046FFF73CFD13E004F2346504F2C4
:103F8000F457BD4204D0103D2846FDF7BFF8F8E7CE
:103F9000304614F0DDFD2046FFF7B0FA2EF0FAFDB2
:103FA000F9E7204603B0F0BDE09E090838B50546A4
:103FB000FFF7C4F995F898325BB9D5F8A044B4F589
:103FC000007F28BF4FF400742846FFF7BFF9204652
:103FD00038BD0024F8E70000F0B587B00446FFF7CD
:103FE000ADF93D4B2046C4F8F035FFF7AFF93B4B38
:103FF0002046029405933A4B039300230493FFF762
:104000009DF9D4F83456032D03D92046FFF79EF9C5
:1040100015E004EB05166B1C06F2F456C4F83436B2
:104020003046FDF773F8059B04EB0515C5F800361F
:10403000002BEAD05B6802A930469847E5E702A862
:10404000FDF764F8BC2016F031F9264B002100F191
:104050004006054603600161304616F03BFC05F161
:104060005407384616F0D6FB1F4B4FF480721821C8
:1040700028460093002316F011FD1C4B02A9C4F83A
:10408000DC55284605931A4B02930023CDE90333F0
:1040900016F010FD10E0384616F0FAFB304616F028
:1040A0005EFC281DFDF732F8BC21284616F032F9D7
:1040B0002EF070FDF2E7F4E702A8FDF727F820469E
:1040C000FEF7D6FD07B0F0BD02A8FDF71FF8EFE739
:1040D00002A8FDF71BF8EBE7313E0408B89E09087B
:1040E000712C040898C20908D09E0908C49E0908CA
:1040F000393D0408A0F59860FFF76EBF90F878008E
:104100007047000037B50F4C0F4D204616F010FBDE
:104110002A460E49204615F071FE42F21203012292
:104120000B4CCDE9003200224FF4F85320461146E3
:10413000FFF7D8FE2A460749204603B0BDE83040C5
:1041400015F05CBEBC470024000000245DA70508F4
:1041500084410024613E040808B54AF017FC2DE9AB
:10416000F04F027D85B005460E46012A40F08E8054
:1041700000214FF0FF3B04460B465F4694F804C015
:1041800048B2BCF1000F73D194F805C0BCF1000F28
:104190006ED1B7F1FF3F17BF0133012338465BB241
:1041A000934201DD1A4683460131023408295DD16C
:1041B000002402EB0B03A1460293CB4502DC029BD9
:1041C0004B4558DC95F8058095F804A04FEA281770
:1041D00008F00F080AF00F035FEA2A1AFAB20192F8
:1041E0006FD05FFA8AF1BAF1090F30460393D4BF5A
:1041F0003031573100F0C9F8039B0444092B304695
:10420000039394BF03F1300103F1570100F0BDF8AF
:104210000444BAF1000F02D1039B03B94FB1092F37
:10422000019F3046D4BF30375737F9B200F0ADF8B0
:104230000444B8F1090F304694BF08F1300108F189
:10424000570100F0A2F8B9F1070F044404D03A2155
:10425000304600F09AF8044409F101090235B9F139
:10426000080FAAD1204605B0BDE8F08F074685E7C4
:104270004FF0FF3098E7CB45EED1BBF1000FE6D110
:104280003A21304600F081F80444E0E700F11007DD
:1042900000F11309002417F8011B0A22304600F030
:1042A000A1F880462E21304600F06FF8B945404411
:1042B0000444F0D10A22E97C304600F093F804442B
:1042C000D0E7002B9AD1A9E7054B102210B5044680
:1042D00003600175002104304CF0FAFA204610BD4D
:1042E000FC9F090870B5074D8374056000259DF893
:1042F0001030057545608560C56001744274C374F3
:1043000070BD00BFFC9F090807B501210648FFF7F3
:10431000DBFF002305481A4619460093FFF7E2FF2A
:1043200003B05DF804FB00BFD0470024E847002439
:104330002DE9F04106460D4601EB02080C464445C6
:10434000A4EB050707D03368304614F8011B1B683F
:1043500098470028F3D13846BDE8F08170B504468F
:1043600008460D464DF04CF8236802462946204683
:104370005B68BDE87040184709B1FFF7EFBF08461A
:10438000704708B5FFF7F8FF08BD03681B681847BA
:1043900070B58AB00D460023012A98BF0A220AA9E7
:1043A00001F8043DB5FBF2F402FB14562546F3B2C6
:1043B000092E94BF30333733DBB201F8013D002CB6
:1043C000F0D1FFF7D9FF0AB070BD10B42AB9036865
:1043D000C9B25DF8044B1B681847D2B25DF8044BB4
:1043E000FFF7D6BFFFF7F1BF704713B5002000906D
:1043F0000DF0B0FD044610B1009802B010BD01AB45
:10440000042269460DF084FD20460DF0A5FDF3E77A
:1044100010B500F069F80A4CFEF7D8F9FEF766FF10
:10442000FEF75BFF4FF4E1310648FFF7D5FDFBF7E0
:10443000A5FFFCF7E5F9002CFBD0AFF30080F8E70F
:10444000000000008441002470B505460024074E9A
:10445000FEF729F9E3B2984206D918461B01013448
:10446000F35EAB42F4D170BDFF20FCE70C000024EA
:1044700010B50446FEF717F984423BBF2401024BF6
:104480004FF0FF30185F10BD0C00002410B504463B
:1044900011F007FC204610BD10B5044611F001FCD8
:1044A000204610BD07B50749684611F037FC4FF4A8
:1044B0007A720023DDE900012EF0CCFF03B05DF835
:1044C00004FB00BF0048002407B50449684611F00A
:1044D00025FC009803B05DF804FB00BF18480024D9
:1044E00016F044BA16F000B908B5044811F0E3FB21
:1044F0000348BDE8084011F0DEBB00BF18480024A7
:104500000048002416F06EBA38B50A4C0A4D204611
:1045100011F041FC2046094C2A46094915F06EFC71
:10452000204611F043FC2A4620460649BDE83840A3
:1045300015F064BC18480024000000240048002442
:10454000994404088D44040870B504460D46164687
:1045500000211C224CF0BCF920463246294613F0BB
:1045600028FC204670BD00002DE9F04107011F4DD9
:1045700004460E46EA19D06810B11C2115F0CAFE97
:104580002046FFF775FF80461C2015F08FFE04467D
:1045900000211C224CF09CF94146204613F006FCF9
:1045A000EB19012EDC6010D006D3022E12D020466B
:1045B00010F0B1FA022103E0204610F0ACFA00211D
:1045C0002046BDE8F04110F0B2BA2046BDE8F04107
:1045D00010F095BA204610F09EFA0121F0E71C2158
:1045E000204615F097FE2EF0D5FA00BF0C000024EF
:1045F00030B589B004460D46FFF726FFC0B2FF284C
:1046000004D02946FFF7B0FF09B030BD012D14D00A
:104610000AD3022D1CD00222214601A8FFF794FFE5
:1046200001A813F04DFBEFE70022214601A8FFF798
:104630008BFF01A813F044FBE6E71C22002101A830
:104640004CF046F90022214601A813F0B4FBDBE749
:104650000122214601A8FFF777FF01A813F030FBE4
:10466000D2E700002DE9F34106460F46FEF71BF89E
:1046700086422AD21B4D4FEA061805EB0802D46881
:10468000ACB93046FFF7F4FE06461C2015F00EFECE
:1046900004461C2200214CF01BF900970023012244
:1046A0003146204613F08EFB05EB0803DC600E4B11
:1046B0000E491A46D3F894008842FBD123683FB1D3
:1046C000A1680B604FF44073536102B0BDE8F08104
:1046D000E1681B04F5E71C21204615F01BFE2EF0B7
:1046E00059FA00BF0C000024006402580003008047
:1046F00030B589B005460C46FFF7A6FEC0B2FF28CC
:1047000004D02146FFF7AEFF09B030BD1C220021C6
:1047100001A84CF0DDF8294601A813F050FB094B25
:1047200009491A46D3F894008842FBD1019B2CB169
:1047300003990B604FF440735361E5E71B04049940
:10474000F7E700BF00640258000300801EF0040F6A
:104750000CBFEFF30880EFF30980816911F8021CA8
:10476000002932D101B590E80F10E047BDE80050B4
:104770008CE80300244B93E80600914208BF704781
:104780001A6041B91EF0100F10D1204B186820F0AC
:10479000010018600AE02CE9F00F1EF0100F08BFAE
:1047A0002CED108A81F822E0C1F838C0906B92F8A5
:1047B000221061F0FF0E1EF0100F08BFB0EC108A3F
:1047C000B0E8F00F80F309887047114A13689942E6
:1047D000FAD801B552F821C00FC8E047BDE8005033
:1047E000CCF80000704701B501F0D2FBBDE80140F4
:1047F000EFF3098CBEE701B501F08EFBBDE8014087
:10480000EFF3098CB6E70000400C002434EF00E021
:10481000B4A00908014608B530B96FF0030000F0F4
:104820001FFA6FF0030008BD132001F09DFF30B99F
:104830004FF0FF3000F014FA4FF0FF30F3E70020A4
:10484000F1E7000008B5EFF305834BB9EFF31083F0
:1048500033B9EFF311831BB9DFF814C000DF08BDD3
:104860006FF0050000F0FCF96FF00500F7E700BFFE
:1048700015480408EFF310832BB9EFF311800038CB
:1048800018BF012070470120704710B520B1037890
:10489000F32B01D1002906DA6FF0030102F06AFA66
:1048A0006FF0030010BD00F10C0353E8000F20EA85
:1048B000010243E8002404B1F7E7F3E7034610B52B
:1048C00028B30468806860B110F0030202D1DB688D
:1048D0000F2B25D86FF00801002002F04BFA0020C2
:1048E00014E0DB68002BF5D1104BD3F8900080B1B9
:1048F00000F088FCB0B10123F322837000234460F0
:1049000002700B4AC0E90233084B5A6610BD0446D8
:10491000EAE701221021D3F8800000F0FEFBE9E76E
:104920001346E9E76FF00401D7E700BF2C0C002421
:10493000054A040810B5044610B10378F32B07D0DC
:1049400020466FF0030102F015FA6FF0030010BD6E
:10495000836863B1204601F077FC00226FF002010A
:1049600001F01CFEA0680028F4D101F0F5FC002342
:104970002370A378DB0701D40020E8E7064B21462B
:10498000D3F8900010B100F05AFCF5E7D3F880009E
:1049900000F0F7FBF0E700BF2C0C0024930710B5E4
:1049A00002F0010422D400F10C0384B153E8000F9B
:1049B00000EA01028A4203D0BFF32F8F002005E0F6
:1049C00020EA010243E8002404B1EFE710BD53E8F8
:1049D000000F084203D1BFF32F8F002005E020EA2B
:1049E000010243E8002404B1F1E7EFE7C06801EAFF
:1049F00000031CB1994218BF0020E7E7002B08BF55
:104A00000020E3E7F8B50546846804B9F8BD94F8DA
:104A100023202846616AA768FFF7C0FF064638B121
:104A2000204601F01AFC00223146204601F0B6FD76
:104A30003C46EAE7F8B50D4617461E46044620B147
:104A40000378F32B01D1002907DA20466FF0030128
:104A500002F090F96FF00300F8BDFFF79FFF002808
:104A6000FAD186B13146432001F07EFE40B1074BBA
:104A700020465E69314601F0D5FB756286F82370E9
:104A80006FF00100E8E76FF00200E5E72C0C00246E
:104A90002DE9F041064620B10378F32B01D100291E
:104AA00009DA6FF003056FF00301304602F062F996
:104AB0002846BDE8F08100F10C0353E8002F42EADC
:104AC000010543E8005000B1F7E7B4681CB920467F
:104AD00001F042FCECE794F823203046616AD4F8F8
:104AE0000880FFF75BFF074678B194F823309B07F7
:104AF00056BF656A054620EA0505204601F0ADFB74
:104B000000223946204601F049FD4446DEE7000018
:104B1000024608B5EFF3058333B100206FF00501BD
:104B200002F028F9002008BDFFF7A4FE0028F4D108
:104B30001046DFF808C000DFF5E700BFBD480408F5
:104B400038B502460D46EFF305834BB192B96FF0CD
:104B500003046FF00301104602F00CF9204638BD43
:104B6000FFF788FE0028F1D11046DFF830C000DFE3
:104B70000446F3E71378F32BE9D1002DE7DB02F1CC
:104B80000C0353E8001F41EA050443E8004000B16C
:104B9000F7E7104601F044FAE0E700BF914A040845
:104BA00010B502460C46EFF305832BB121461046A3
:104BB000BDE81040FFF769BEFFF75CFE0028F5D1A5
:104BC0001046DFF808C000DF10BD00BF8B480408A6
:104BD000F8B504460E4617461D46EFF3058343B16C
:104BE0008CB920466FF0030102F0C4F86FF00300A7
:104BF000F8BDFFF73FFE0028F2D120462B46DFF834
:104C000028C000DFF4E72378F32BEAD1002DE8D1A8
:104C1000002EE6DB3A4631462046FFF7BFFE00286D
:104C200008BF6FF00200E3E7354A0408024608B502
:104C3000EFF305833BB110466FF0050102F09AF8DF
:104C40006FF0050008BDFFF715FE0028F3D11046F0
:104C5000DFF804C000DFF5E7354904087047704706
:104C60007047EFF310832BB9EFF31180003818BFB2
:104C70000120704701207047064BDA6A3AB1D069CB
:104C80005B6C1BB11B69984228BF184670474FF0F8
:104C9000FF30F5E72C0C0024014BD868704700BFAB
:104CA0002C0C002408B5094B1A7A022A08D0032AD2
:104CB0000AD04FF0FF3002F051F84FF0FF3002E021
:104CC000032200201A7208BD0120FCE72C0C0024EE
:104CD00008B50A4B1A7A023A012A02D840B10128D3
:104CE00009D04FF0FF3002F039F84FF0FF3001E00B
:104CF00002221A7208BD0322FBE700BF2C0C00241D
:104D000070B5464C237A012B00F0858033B14FF00B
:104D1000FF3002F023F84FF0FF3070BD404DEB68DC
:104D2000E3652B8AD5E90B61A4F85430AB683046B3
:104D3000236400F0DBF908B1C4F88060D5E90561AF
:104D4000304600F0D3F908B9D4F880606667D5E939
:104D50000761304600F0CAF908B9D4F88060A66748
:104D6000D5E90961304600F0C1F908B9D4F880608E
:104D7000E6676E6B3EB131683046D6E9022300F03B
:104D800020FAC4F88460AE6B3EB131683046D6E993
:104D9000022300F016FAC4F88860EE6B3EB1316869
:104DA0003046D6E9022300F00CFAC4F88C602E6C71
:104DB0003EB131683046D6E9022300F002FAC4F869
:104DC00090606E6C3EB131683046D6E9022300F047
:104DD000F8F9C4F89460AE6C3EB131683046D6E95B
:104DE000022300F0EEF9C4F89860EE6C3EB1316831
:104DF0003046D6E9022300F0E4F9C4F89C602D6D3A
:104E00003DB129682846D5E9022300F0DAF9C4F853
:104E1000A0500123237200207FE700BF2C0C002448
:104E200044A0090870B5274C237A012B07D06FF0F6
:104E300006004FF0FF3501F091FF284670BD01F0EC
:104E400005FD10B94FF0FF30F3E71F4AFF2382F84A
:104E5000223092F8223063F0FF03DB4304D1D268A2
:104E6000C2F30222531C08E0B3FA83F3D268C3F101
:104E70002003C2F302229342F4D9FE22134E1449B6
:104E800002FA03F3104A7068DBB2D37701F0C2FF75
:104E900005460028D6D102F015F8206101F0FEFF8A
:104EA0000C4801F0D1F901F04FFA3368DB074CBF31
:104EB0000223032383F31488BFF36F8F022323722B
:104EC000BBE700BF2C0C002400ED00E044A0090863
:104ED000F7470408480C002410B50F4C237A022B26
:104EE00013D101F0E3FF01236372BFF34F8F0B4A2D
:104EF0005168C90003D54FF000615160A3720423CB
:104F00002372BDE81040FFF7B7BE6FF0070001F055
:104F100025FF002010BD00BF2C0C002400ED00E098
:104F200038B51D4C0546237A042B34D1FFF7A4FE77
:104F3000E26A85422CBF00F1FF332B4612B1D069E3
:104F4000C01AD061626C12B11069C01A1061E268B7
:104F500013441544E360E3689D4213D1022300200B
:104F6000237201F0F9F900236372BFF34F8FA27A25
:104F700022B1A3724FF08052084B5A60BDE838400E
:104F800001F08CBF0133E36001F0A4F9236D002B25
:104F9000E1D09847DFE738BD2C0C002400ED00E09D
:104FA000704738B504460D46FFF758FE294620469F
:104FB000BDE8384001F094BE08B5FFF7F1FFEFF30C
:104FC000058333B16FF0050001F0C8FE6FF00500F6
:104FD00008BDFFF746FE0028F4D1DFF808C000DF67
:104FE000F6E700BF014D040808B5EFF3058333B1C0
:104FF0006FF0050001F0B2FE6FF0050008BDFFF78D
:1050000030FE0028F4D1DFF808C000DFF6E700BF6B
:10501000254E040808B5EFF3058333B16FF00500A2
:1050200001F09CFE6FF0050008BDFFF71AFE002896
:10503000F4D1DFF808C000DFF6E700BFA54C040894
:10504000024608B5EFF3058333B16FF0050001F0B8
:1050500085FE6FF0050008BDFFF703FE0028F4D1C0
:105060001046DFF808C000DFF5E700BFD14C0408A8
:1050700008B5EFF305832BB16FF0050001F06EFE6C
:10508000002008BDFFF7EDFD0028F5D1DFF804C0D2
:1050900000DFF6E7D94E0408024608B5EFF30583B2
:1050A0002BB16FF00500BDE8084001F057BEFFF7D7
:1050B000D8FD0028F5D11046DFF804C000DF08BD98
:1050C000214F040808B5EFF3058313B1054BD868E9
:1050D00008BDFFF7C6FD0028F8D1DFF80CC000DFDF
:1050E000F6E700BF2C0C0024994C0408034610B5C9
:1050F00088B1084310F007000DD117290AD91960AB
:1051000008391022CC185A609C60585099684A603F
:10511000D860012010BD0020FCE7034670B570B3D5
:1051200069B3032A2BD80F3100F1080421F00706D8
:10513000214624684D68601A25F00305401B86420D
:1051400003D920680028F3D170BD5D683243186828
:1051500035445D60034453F8040C083B854288BF26
:105160005D604B681BB901F108004A60ECE723F071
:105170000303C818CC50426008600830E4E7002000
:10518000E2E7034610B580B1C9B1A1F1080400F10E
:1051900008020021A24209D1506820F00304586897
:1051A000001B586041B95160012010BD10681146C4
:1051B0000028FAD00246EDE713680B60F4E70846D2
:1051C000F3E730B5C0B189B1C2B1CBB10024016001
:1051D000C3604361C0E9014202FB01F41D1905618E
:1051E0001846013904D1A41A19510121084630BDCD
:1051F000851805602846F4E70146F7E71146F5E70C
:105200001946F3E7034610B508B9002010BD00F1B8
:10521000140252E8000F10B9BFF32F8F04E00168A9
:1052200042E8001404B1F4E70028EED0043353E858
:10523000002F511C43E8001404B1F8E7E6E730B54D
:10524000F0B1C3688B421BD803698B4218D900F1B7
:1052500014031A680A60BFF35F8F53E8002F0C68CD
:105260009442F6D143E8001505B1F2E7043050E866
:10527000003F5A1E40E8002101B1F8E7002030BD90
:105280006FF00300FBE7EFF310832BB9EFF311800E
:10529000003818BF0120704701207047D1E9013262
:1052A00023B19A608A681AB153607047C262F9E705
:1052B000036370472DE9F84F8946074638B131B18D
:1052C000B0FA80F1B9FA89F30B441F2B08DC6FF0B8
:1052D00003010024002001F063FD2046BDE8F88FA3
:1052E00009F1030828F0030808F10C0808FB00FB8B
:1052F000002A5AD09468D2F800A0D2E904653CB1E3
:10530000A10702D1D368332B0DD86FF00801E0E775
:10531000D368002BF9D126B3B20701D1AB4522D90E
:105320006FF00901D5E7B6B9002DF9D12A4B00225B
:105330005946D86FFFF7F1FE0646002844D13DB12B
:10534000254B2146D3F8A000002838D0FFF777FF7F
:105350006FF00401BDE7B307E2D1AB45E0D800250B
:105360000DE0002DDCD11C4BD3F8A00000B3FFF7FB
:1053700049FF04460028EBD00125002ED6D0FA23A1
:105380004246394604F10C0023700023A570A36047
:10539000C4F804A0C4E90993C4E90B333346FFF70A
:1053A00010FF0D4B0D4A1A6797E792461646DAE74B
:1053B00001223421D3F88000FFF7AFFED9E7D3F8FC
:1053C0008000FFF7DEFEC3E75A46002145F00205E4
:1053D0004BF07EFAD3E700BF2C0C00246D54040878
:1053E00000F1280310B553E8002F12B9BFF32F8F37
:1053F00004E0511E43E8001404B1F4E70AB90020A8
:1054000010BDC06A01220028F9D0811CD1E84F3FAD
:10541000C1E8442F04B1F9E7DBB2002BF0D080687B
:10542000F1E7036B30B5E3B1CD780024DA78AA4216
:105430000FD31A46C1E901248AB19160A4B1616019
:10544000283050E8003F5A1C40E8002101B1F8E73D
:1054500030BD5A681C46002AECD01346E6E7C1620C
:10546000ECE7C1E90133C1620163E9E7F8B5877888
:1054700004468FB3C568002701462846FFF70EFF94
:10548000277005F10C042046FFF7D9FEAB68002B0E
:1054900048D02046FFF7B6FE0446002842D02846F2
:1054A00000F0D2FE06463A46394601F077F830461B
:1054B00000F040FF6A6A0646816804F10C004BF078
:1054C00009F9F923A7702370F368E3702146284691
:1054D000BDE8F840FFF7A5BF8568AB68002BF5D0A5
:1054E0005B78832BF2D1284600F0AEFE06463A46A2
:1054F000394601F053F8304600F01CFF06466A6A50
:1055000004F10C0180684BF0E5F8F3680BB1E27828
:105510001A700023214605F10C002370BDE8F84005
:10552000FFF78DBEF8BD00002DE9F0410E4617468D
:105530009846044618B10378FA2B00D141B92046A9
:105540006FF0030101F02CFC6FF00300BDE8F08167
:105550008368BBB15B78832B14D100F075FE0546E0
:105560000122002101F01AF8284600F0E3FE05466A
:10557000626A314680684BF0ADF8EB6803B11F708A
:105580000020E3E704F10C00FFF73CFE054670B194
:105590003146626A0C304BF09DF8F92329462046CB
:1055A0002B700023EF70AB70FFF73BFFE8E7B8F11B
:1055B000000F11D04146932001F0D6F810B96FF0DA
:1055C0000100C3E7064B2046596900F02BFEEFF3BC
:1055D0000983C3E90267F2E76FF00200B6E700BF94
:1055E0002C0C00242DE9F0410F461646984604463F
:1055F00018B10378FA2B00D141B920466FF00301AE
:1056000001F0CEFB6FF00300BDE8F081FFF7E8FE8C
:10561000054600283AD001462046FFF73FFE626A61
:1056200005F10C0138464BF055F80EB1EB783370AC
:10563000002704F10C06294630462F70FFF7FFFDC6
:10564000A3680BB90020DFE73046FFF7DBFD054616
:105650000028F7D0204600F0F7FD06463946012223
:1056600000F09CFF304600F065FE626A06468168E5
:1056700005F10C004BF02EF8F923AF7029462B7082
:105680002046F368EB70FFF7CCFEDBE7B8F1000FC4
:1056900011D04146832001F067F810B96FF0010086
:1056A000B2E7064B2046596900F0BCFDEFF30983D1
:1056B000C3E90276F2E76FF00200A5E72C0C0024A4
:1056C00008B5064B08219A6ED86EFFF7F3FD044B20
:1056D000D864B0FA80F04009404208BD44A00908EF
:1056E0002C0C00242DE9F04106460F4690461C463E
:1056F000EFF305834BB196B930466FF0030101F02B
:105700004FFB6FF00300BDE8F081FFF7BCFD002800
:10571000F1D130462346DFF848C000DFF3E73378A5
:10572000FA2BE9D1002FE7D0002CE5D106F10C00CF
:10573000FFF768FD054680B1726A39460C304AF0C1
:10574000C9FFF9232846AC702B7085F80380C5E9A2
:10575000017600F065FC2046D5E76FF00200D2E745
:1057600029550408F8B504460F4616461D46EFF3C2
:10577000058343B18CB920466FF0030101F010FBA3
:105780006FF00300F8BDFFF77EFD0028F2D1204640
:105790002B46DFF844C000DFF4E72378FA2BEAD188
:1057A000002FE8D0002DE6D12046FFF719FE054670
:1057B00070B100F10C01626A38464AF08BFF0EB1FD
:1057C000EB7833702846EC6000F02AFC0020D9E723
:1057D0006FF00200D6E700BFE5550408EFF3108331
:1057E0002BB9EFF31180003818BF0120704701205A
:1057F0007047000038B5044640B3D0E90025806802
:1058000060B110F0030302D1E1681B2927D86FF0C3
:105810000801002001F0B4FA002016E0E368002B34
:10582000F5D11446104BD3F8940088B1FFF7EAFC89
:10583000B8B10123F52283700023C5700270446063
:105840000376C0E90233C0E9043338BD0546E9E711
:1058500001221C21D3F88000FFF75FFCE8E7144623
:10586000E8E76FF00401D5E72C0C0024294B70B554
:105870005D6904460E4635B96FF0070101F080FA04
:105880004FF0FF3070BD10B10378F52B07D02046E4
:105890006FF0030101F074FA6FF00300F2E7037E8A
:1058A00053B9C0E90353EB6A436103B118610123A3
:1058B000EC6200202376E5E7C278D1070ED5C168F7
:1058C000A9420BD1FF2B06D16FF00F0101F058FA5E
:1058D0006FF00200D6E70133DBB2EAE7002EF7D023
:1058E00093070AD5E06895F9203090F920209A4274
:1058F00003DA80F8203000F0B9FC3146532000F084
:1059000033FF10B96FF00100BCE72946204600F0D4
:1059100089FCF7E72C0C00242F4B5A6970B504461C
:1059200032B96FF0070101F02BFA4FF0FF3070BD74
:1059300010B10378F52B07D020466FF0030101F07A
:105940001FFA6FF00300F2E7037E33B96FF00E0128
:1059500001F016FA6FF00200E9E7C168914202D047
:105960006FF00D01F4E7013BDBB203760BB10020D1
:10597000DDE743690BB1016919612169E9B14B6147
:1059800092F92130D56AD5B982F82030A36883B165
:10599000204600F059FC06462A46294600F0FEFD46
:1059A000F36AC4E90365636103B11C610123F46216
:1059B0002376002000F0D0FCD9E7D362E0E7E97855
:1059C000890706D5A96821B191F920108B42B8BF8B
:1059D0000B466D69D7E700BF2C0C002410B50446B8
:1059E00010B10378F52B07D020466FF0030101F0CA
:1059F000C7F96FF0030010BD037EBBB16369C068D7
:105A00000BB122691A612269BAB1536190F9212060
:105A1000C36AA3B990F92030934203D080F82020C4
:105A200000F024FCA068B0B900F096FC00232370BD
:105A3000A378DB0718D40020DDE7C362E6E7D97856
:105A4000890706D5996821B191F920108A42B8BF1B
:105A50000A465B69DDE7204600F0F6FB00226FF0A6
:105A6000020100F09BFDDDE7064B2146D3F89400D0
:105A700010B1FFF7E4FBDEE7D3F88000FFF781FB0E
:105A8000D9E700BF2C0C00242DE9F0410446002684
:105A900001270CB9BDE8F081E378D4F814801B0726
:105AA00012D5A36826767BB1204600F0CDFB0022FC
:105AB0000546114600F072FDEB6AC4E903566361C6
:105AC00003B11C61EC6227764446E2E710B4C37868
:105AD0009B071DD5C06890F92120C36ADC78A40714
